:020000040800F2
:100000002806002001010008D1260008252000084C
:10001000CD260008CD010008C53000080000000012
:10002000000000000000000000000000B5290008EA
:10003000D101000800000000D3260008B7290008FD
:100040001B0100081B0100081B0100081B01000820
:100050001B0100081B0100081B0100081B01000810
:100060001B0100081B0100081B0100081B01000800
:100070001B0100081B0100081B0100081B010008F0
:100080001B0100081B0100081B0100081B010008E0
:100090001B0100081B0100081B0100081B010008D0
:1000A0001B0100081B0100081B0100081B010008C0
:1000B0001B0100081B0100081B0100081B010008B0
:1000C0001B0100081B0100081B0100081B010008A0
:1000D0001B010008B53000081B0100081B010008C7
:1000E0001B0100081B0100081B010008DFF80CD0F1
:1000F00000F05AF80048004755360008280600204E
:100100000648804706480047FEE7FEE7FEE7FEE7B1
:10011000FEE7FEE7FEE7FEE7FEE7FEE7452A00080A
:10012000ED000008D2B201E000F8012B491EFBD21D
:1001300070470022F6E710B513460A4604461946F2
:10014000FFF7F0FF204610BD10B5044604E00B7821
:1001500000F8013B03B1491C521EF8D2204610BDE5
:1001600010B5002200E0521C835C8C5CA34201D1DC
:10017000002BF8D1D8B2E1B2401A10BD30B50B4611
:10018000014600202022012409E021FA02F59D42C7
:1001900005D303FA02F5491B04FA02F52844151E9B
:1001A000A2F10102F1DC30BD064C074D06E0E0682B
:1001B00040F0010394E8070098471034AC42F6D3AE
:1001C000FFF798FF005100082051000800BFFEE72C
:1001D000704770470146002291F82100022808D09C
:1001E0000420886300BF002081F8200000BF0120A8
:1001F00070470868006820F00E000B6818600868F7
:10020000006820F001000B68186091F84030012070
:100210009840CB6B5860012081F8210000BF00207E
:1002200081F8200000BF1046E2E7000070B50446E8
:10023000002594F82100022803D00420A0630125A2
:1002400048E02068006820F00E00216808602068FF
:10025000006820F00100216808601F49206888427A
:1002600001D1012026E01C4914312068884201D1C7
:1002700010201FE0184928312068884201D18015DC
:1002800018E015493C312068884201D1801411E002
:10029000114950312068884202D14FF4803009E082
:1002A0000D4964312068884202D14FF4801001E08A
:1002B0004FF08070084908394860012084F8210017
:1002C00000BF002084F8200000BF606B10B1204602
:1002D000616B8847284670BD0800024070B504462F
:1002E00000F0AEF906462546681C10B104480078B7
:1002F000054400BF00F0A4F9801BA842FAD370BDEA
:10030000280000202DE9F8470346002294466EE1BC
:100310004FF0010808FA02F4D1F8008008EA04005E
:10032000A0427DD1DFF8DCA2D1F80480A8EB0A0955
:10033000D0453AD014DCB8F1030F50D009DCB8F145
:10034000000F31D0B8F1010F1CD0B8F1020F49D124
:1003500020E0B8F1110F18D0B8F1120F42D11EE011
:10036000B9F5881F25D006DCB9F5803F20D0B9F556
:10037000801F37D11AE0B9F5001F18D0B9F5041F56
:1003800030D117E0D1F80CC02DE0D1F80C8008F185
:10039000040C28E0D1F80C8008F1080C23E0D1F817
:1003A0000C8008F10C0C1EE000BF00BF00BF00BFB6
:1003B00000BF00BFD1F80880B8F1000F02D14FF0A4
:1003C000040C0BE0D1F80880B8F1010F03D14FF015
:1003D000080C1C6102E04FF0080C5C6103E04FF078
:1003E000000C00E000BF00BFFF2801D8984601E0E4
:1003F00003F104084646FF2802D84FEA820803E0CA
:10040000A2F108084FEA88084746D6F800804FF066
:100410000F0909FA07F928EA09080CFA07F900E0B8
:1004200088E048EA0908C6F80080D1F8048008F09E
:100430008058B8F1805F7DD100BFDFF8CC81D8F85B
:10044000188048F00108DFF8C091C9F81880C84644
:10045000D8F8188008F00108CDF8008000BF00BF70
:100460004FEAB9384FEA920958F829504FEA827892
:100470004FEA18794FF00F0808FA09F825EA08053D
:10048000DFF88881434502D14FF0000816E0DFF81D
:100490008081434502D14FF001080FE0DFF87481FD
:1004A000434502D14FF0020808E0DFF86C81434574
:1004B00002D14FF0030801E04FF004084FEA8279BF
:1004C0004FEA197908FA09F848EA0505DFF84C817E
:1004D0004FEA920948F82950D1F8048008F480388E
:1004E000B8F5803F0AD1DFF83881D8F8008048EAB3
:1004F0000008DFF82C91C9F8008009E0DFF82081BE
:10050000D8F8008028EA0008DFF81491C9F80080C4
:10051000D1F8048008F40038B8F5003F10D1DFF8B6
:10052000008108F10408D8F8008048EA0008DFF8E4
:10053000F09000E05AE009F10409C9F800800DE0EC
:10054000DFF8DC8008F10408D8F8008028EA000809
:10055000DFF8CC9009F10409C9F80080D1F80480D3
:1005600008F48018B8F5801F0ED1DFF8B48008F1C8
:100570000808D8F8008048EA0008DFF8A49009F1DC
:100580000809C9F800800DE0DFF8948008F1080838
:10059000D8F8008028EA0008DFF8849009F10809FB
:1005A000C9F80080D1F8048008F40018B8F5001FDD
:1005B0000ED1DFF86C8008F10C08D8F8008048EA0A
:1005C0000008DFF85C9009F10C09C9F800800DE023
:1005D000DFF84C8008F10C08D8F8008028EA000801
:1005E000DFF83C9009F10C09C9F80080521CD1F8E1
:1005F000008028FA02F8B8F1000F7FF489AEBDE858
:10060000F8870000000011100010024000080140AF
:10061000000C01400010014000140140080001409E
:1006200000040140024693680B400BB1012000E03A
:10063000002070470AB1016101E00B0403617047BB
:10064000014800687047000020000020034800684F
:1006500003490978084401490860704720000020D8
:100660002800002010B50848006840F01000064936
:100670000860032000F0A8F8002000F007F800F060
:100680002BF8002010BD00000020024070B5044689
:100690000E4800784FF47A71B1FBF0F00C4909680C
:1006A000B1FBF0F5284601F04CF808B1012070BD0F
:1006B000102C07D200222146501E00F047F80548B2
:1006C000046001E00120F2E70020F0E728000020AC
:1006D0001C0000202400002008B500BF11488069DC
:1006E00040F001000F4988610846806900F0010070
:1006F000009000BF00BF00BF0846C06940F08050B6
:10070000C8610846C06900F08050009000BF00BF7B
:1007100000BF0549486820F0E06040F00070486084
:1007200000BF08BD0010024000000140014608461D
:10073000002809DB00F01F0301229A4043099B00B7
:1007400003F1E023C3F8002100BF70472DE9F05FFB
:1007500080460D461646002702F064FD07463946DE
:100760002A46334601F00700C0F1070ABAF1040F28
:1007700002D94FF0040A01E0C0F1070AD14600F1A6
:10078000040ABAF1070F02D24FF0000A01E0A0F10B
:10079000030AD4464FF0010A0AFA09FAAAF1010A3B
:1007A0000AEA020A0AFA0CFA4FF0010B0BFA0CFBE8
:1007B000ABF1010B0BEA030B4AEA0B04214640465E
:1007C00002F038FDBDE8F09F00BF00F00702064BC5
:1007D00019684FF6FF031940044B0B4343EA02210B
:1007E000014B196000BF70470CED00E00000FA05F6
:1007F000012001490862704700000E422DE9F043D4
:1008000085B006463BA30FCB01AC0FC43DA00068EA
:1008100000904FF00008002500270024A146012E7B
:1008200030D0022E55D0102E5ED137484468006873
:1008300000F0807000B301A8C4F38341475C04F466
:10084000803070B130484068C0F340401DF80080EF
:1008500004F4803040B12D48B0FBF8F000FB07F500
:1008600002E02B4807FB00F52748406800F48000B1
:10087000B0F5800F01D1A94603E068000321B0FB69
:10088000F1F932E02048046A04F44070B0F5807F4A
:1008900005D104F0020010B14FF4004918E004F44F
:1008A0004070B0F5007F07D11748406A00F00200A1
:1008B00010B149F640490BE004F44070B0F5407FB8
:1008C00006D11148006800F4003008B14FF2244905
:1008D0000BE000F093F90C494968C1F38131491CE0
:1008E0004900B0FBF1F900E000BF00BF484605B089
:1008F000BDE8F08302030405060708090A0B0C0D86
:100900000E0F1010010200000010024000127A00C9
:1009100000093D00F8B5044600260025207800F0C7
:10092000010000286BD000274348C06900F08050C8
:1009300070B900BF4048C06940F080503E49C8616E
:100940000846C06900F08050009000BF00BF01273A
:100950003A48006800F48070B0B93848006840F444
:10096000807036490860FFF76BFE064606E0FFF729
:1009700067FE801B642801D90320F8BD2F4800685A
:1009800000F480700028F2D02B48006A00F4407513
:100990002DB3A08800F44070A84220D02648006AF9
:1009A00020F4407501202649086000200860224894
:1009B000056205F0010090B1FFF742FE064608E02F
:1009C000FFF73EFE801B41F28831884201D90320A7
:1009D000D3E71948006A00F002000028F0D016485A
:1009E000006A20F440706168084313490862012FCF
:1009F00004D10846C06920F08050C86100BF20784B
:100A000000F00200022807D10B48406820F4404063
:100A1000A168084308494860207800F010001028B9
:100A200007D10548406820F48000E1680843024986
:100A300048600020A1E70000001002400070004064
:100A40004004424270B504460D460CB9012070BD09
:100A50005A48006800F00700A8420ED257480068C4
:100A600020F007002843554908600846006800F058
:100A70000700A84201D00120E9E7207800F0020039
:100A800002281DD1207800F00400042805D14C482C
:100A9000406840F4E0604A494860207800F008006F
:100AA000082805D14648406840F4605044494860F1
:100AB0004348406820F0F000A1680843404948607E
:100AC000207800F0010078B36068012806D13C4826
:100AD000006800F4003090B90120B8E7606802288F
:100AE00006D13748006800F0007040B90120AEE739
:100AF0003348006800F0020008B90120A7E7304839
:100B0000406820F00300616808432D494860FFF702
:100B100097FD064609E0FFF793FD801B41F28831FF
:100B2000884202D9032092E707E02548406800F098
:100B30000C006168B0EB810FEDD12048006800F037
:100B40000700A8420ED91D48006820F0070028437E
:100B50001A4908600846006800F00700A84201D062
:100B6000012074E7207800F00400042807D114481D
:100B7000406820F4E060E16808431149486020784B
:100B800000F00800082808D10D48406820F46050A3
:100B9000216940EAC1000A49486000F03FF808496D
:100BA0004968C1F30311074A515CC840064908600F
:100BB00006480068FFF76AFD002048E70020024071
:100BC00000100240E85000081C0000202400002013
:100BD00001480068704700001C00002000B5FFF7C6
:100BE000F7FF04494968C1F30221034A515CC84038
:100BF00000BD000000100240F850000800B5FFF7EB
:100C0000E7FF04494968C1F3C221034A515CC84067
:100C100000BD000000100240F8500008F0B585B09B
:100C20000FF26C0C9CE8E01001A8A0E8E0101CA5F5
:100C30002D68009500210022002300240020194D7A
:100C4000696801F00C05F5B1042D02D0082D19D109
:100C500001E0154819E001ADC1F38346AC5D01F434
:100C6000803555B10F4D6D68C5F340451DF8052021
:100C70000D4D6543B5FBF2F302E00C4D04FB05F3AB
:100C8000184602E000BF084800BF00BF05B0F0BD35
:100C900002030405060708090A0B0C0D0E0F1010BD
:100CA000010200000010024000127A0000093D001D
:100CB000F8B504460CB90120F8BD207800F0010019
:100CC000002878D0F848406800F00C0004280CD0C8
:100CD000F548406800F00C00082811D1F24840683F
:100CE00000F48030B0F5803F0AD1EF48006800F48E
:100CF000003000285FD0606800285CD10120DBE76D
:100D000000BF6068B0F5803F06D1E748006840F456
:100D10008030E549086028E0606858B9E24800681A
:100D200020F48030E04908600846006820F4802004
:100D300008601AE06068B0F5A02F0BD1DA480068AF
:100D400040F48020D84908600846006840F48030AC
:100D500008600AE0D448006820F48030D249086076
:100D60000846006820F48020086000BF606888B1F1
:100D7000FFF766FC054606E0FFF762FC401B6428AF
:100D800001D9032098E7C848006800F40030002823
:100D9000F2D010E0FFF754FC054606E0FFF750FCE8
:100DA000401B642801D9032086E7BF48006800F48F
:100DB00000300028F2D1207800F00200022857D13C
:100DC000B948406800F00C0050B1B748406800F0E6
:100DD0000C00082818D1B448406800F4803098B955
:100DE000B148006800F0020020B12069012801D05C
:100DF000012061E7AC48006820F0F800616940EA32
:100E0000C100A949086033E02069E8B10120A74981
:100E10000860FFF715FC054606E0FFF711FC401BD4
:100E2000022801D9032047E79F48006800F002002C
:100E30000028F2D09C48006820F0F800616940EA80
:100E4000C1009949086013E0002098490860FFF745
:100E5000F7FB054606E0FFF7F3FB401B022801D92C
:100E6000032029E79048006800F002000028F2D132
:100E7000207800F0080008282DD1A069B8B1012021
:100E80008B490860FFF7DCFB054606E0FFF7D8FB5F
:100E9000401B022801D903200EE78348406A00F076
:100EA00002000028F2D0012001F014FC13E0002021
:100EB0007F490860FFF7C4FB054606E0FFF7C0FB6B
:100EC000401B022801D90320F6E67748406A00F06B
:100ED00002000028F2D1207800F00400042873D129
:100EE00000277148C06900F0805070B900BF6E489B
:100EF000C06940F080506C49C8610846C06900F084
:100F00008050009000BF00BF01276A48006800F4CD
:100F10008070B0B96748006840F480706549086027
:100F2000FFF78EFB054606E0FFF78AFB401B6428AF
:100F300001D90320C0E65F48006800F480700028F3
:100F4000F2D000BFE068012806D15748006A40F09F
:100F500001005549086227E0E06858B95248006A24
:100F600020F00100504908620846006A20F00400A1
:100F7000086219E0E06805280BD14B48006A40F090
:100F80000400494908620846006A40F0010008620E
:100F90000AE04548006A20F001004349086208461B
:100FA000006A20F00400086200BFE068A0B1FFF70B
:100FB00047FB054609E0FFF743FB401B41F2883140
:100FC000884202D9032077E622E03748006A00F021
:100FD00002000028EFD012E0FFF732FB054608E0E0
:100FE000FFF72EFB401B41F28831884201D90320D4
:100FF00062E62D48006A00F002000028F0D1012FBF
:1010000005D12948C06920F080502749C86100BF38
:10101000E069C8B32448406800F00C00082860D09C
:10102000E069022848D1002020490866FFF708FB44
:10103000054606E0FFF704FB401B022801D9032008
:101040003AE61948006800F000700028F2D1206AE2
:10105000B0F5803F07D11448406820F40030A16803
:10106000084311494860D4E9080108430E4949681A
:1010700021F4741108430C49486001200B490866AB
:10108000FFF7DEFA054607E03DE0FFF7D9FA401B1F
:10109000022801D903200FE60348006800F0007021
:1010A0000028F2D02FE00000001002400000424271
:1010B0008004424200700040002014490866FFF797
:1010C000BFFA054606E0FFF7BBFA401B022801D92C
:1010D0000320F1E50E48006800F000700028F2D10E
:1010E00011E0E069012800D1E6E50948466806F408
:1010F0008031206A814204D106F47011606A814215
:1011000001D00120D8E50020D6E5000000004242D1
:101110000010024070B5044600250CB9012070BDD6
:10112000607C20B900202074204600F05BF802208B
:101130006074204600F060F918B10420607401204A
:10114000EDE7204601F0E5FA18B1042060740120B3
:10115000E5E72068406820F0070021684860A06843
:1011600028B11F48006820F001001D4908601C4894
:10117000001F006820F46070A16808431849091F27
:1011800008606068401C08B1656809E00120FFF74D
:1011900035FB05461DB9042060740120BFE76D1EB4
:1011A0002068806820F00F0040EA154021688860C0
:1011B0002068C06865F30F002168C860204601F010
:1011C000C5FA18B1042060740120A8E70021E1737A
:1011D00001216173A1730120607400209FE700006A
:1011E000306C004038B504460B492068884212D163
:1011F000FFF7FEFA00BF0948C06940F000600749E8
:10120000C8610846C06900F00060009000BF00BFE0
:1012100001200349086038BD00280040001002404A
:101220003C0442422DE9F04704460D469046002614
:101230000027B14604B115B90120BDE8F08700BF11
:10124000207C012801D10220F7E70120207400BF93
:1012500002206074B8F1000F06D1E978E173697873
:101260006173A978A1730BE0E87801F047FAE073A5
:10127000687801F043FA6073A87801F03FFAA07330
:10128000A27B617BE07B01F0A4FA2073207B2870B5
:10129000204601F084FA06464FF46160B6FBF0F98F
:1012A000B9F1180F2FD91820B9FBF0F000EB40006E
:1012B000C000C0EB4011C1EB0020A6EB0016314688
:1012C000204601F0DFFA38B10420607400BF00202E
:1012D000207400BF0120B0E7204601F054FA074611
:1012E000781C80B1B7420ED20B48074439462046DD
:1012F00001F0B1FA38B10420607400BF00202074FE
:1013000000BF012099E70120607400BF0020207415
:1013100000BF00BF91E70000805101002DE9F047B8
:1013200004460D4690460026002704B115B9012059
:10133000BDE8F08700BF207C012801D10220F7E73B
:101340000120207400BF02206074B8F1000F0BD19F
:1013500028784FF4616148436978C1EB011100EBD3
:101360008100A978461812E0287801F0C7F94FF4F7
:10137000616100FB01F9687801F0C0F9C0EB001071
:1013800009EB8009A87801F0B9F909EB00063146AC
:10139000204601F077FA38B10420607400BF0020C5
:1013A000207400BF0120C3E72068406820F00500DA
:1013B00021684860204601F0E6F90746781C80B1B4
:1013C000B7420ED20B4807443946204601F043FA93
:1013D00038B10420607400BF0020207400BF0120D9
:1013E000A6E70120607400BF0020207400BF00BF8A
:1013F0009EE700008051010070B5044600250CB93D
:10140000012070BD2068406820F008002168486015
:10141000FFF716F9054607E0FFF712F9401BB0F594
:101420007A7F01D90320ECE72068406800F00800CB
:101430000028F1D00020E4E710B504460CB90120E3
:1014400010BD606A38B96068B0F5827F00D105E0F0
:101450000021E16102E00021216161610021A162BE
:1014600094F8510028B9002084F85000204600F07C
:1014700043F8022084F851002068006820F0400002
:1014800021680860A08800F48270218901F4044179
:101490000843A18901F400610843217C01F00201A5
:1014A0000843217D01F001010843218B01F4007103
:1014B0000843217F01F0380108432021095D01F034
:1014C00080010843218D01F4005108432168086020
:1014D0000421A06901EA1040216848602068C069C1
:1014E00020F400602168C86100206065012084F854
:1014F00051000020A4E7000010B586B0044600208B
:1015000002900390049005901E492068884236D1CD
:1015100000BF1D48806940F480501B49886108461F
:10152000806900F48050019000BF00BF00BF0846F2
:10153000806940F0080088610846806900F0080072
:10154000019000BF00BF28200290022003900320DA
:10155000059002A90D48FEF7D5FE1020029000204C
:101560000390049002A90948FEF7CCFE00BF084989
:10157000486840F0E06040F00100486000BF06B0FD
:1015800010BD00000030014000100240000C01407E
:10159000000001402DE9F84F0446884616461D46D6
:1015A0004FF0000A00BF94F85000012802D1022039
:1015B000BDE8F88F012084F8500000BFFFF740F825
:1015C0000746B14694F85100012802D04FF0020AB4
:1015D000ADE0B8F1000F00D016B94FF0010AA6E057
:1015E000032084F8510000206065C4F83080A6868E
:1015F000E686A063A087E08760642064A068B0F5F9
:10160000004F0BD12068006820F04000216808607E
:101610002068006840F48040216808602068006805
:1016200000F04000402805D02068006840F04000ED
:1016300021680860E068B0F5006F2FD1606810B1D4
:10164000B9F1010F09D1206B00882168C860206BB7
:10165000801C2063E08E401EE0861BE020688068CE
:1016600000F0020002280AD1206B00882168C860BF
:10167000206B801C2063E08E401EE0860AE0FEF7AF
:10168000DFFFC01BA84201D3681C00B915B94FF099
:10169000030A4CE0E08E0028E0D12EE0606810B133
:1016A000B9F1010F09D1206B007821680873206B14
:1016B000401C2063E08E401EE0861BE020688068AE
:1016C00000F0020002280AD1206B0078216808731C
:1016D000206B401C2063E08E401EE0860AE0FEF78F
:1016E000AFFFC01BA84201D3681C00B915B94FF069
:1016F000030A1CE0E08E0028E0D13A462946204645
:1017000001F0D7F808B120206065A06850B900BF8B
:10171000002000902068C0680090206880680090D9
:1017200000BF00BF606D08B14FF0010A00BF01208B
:1017300084F8510000BF002084F8500000BF5046DC
:1017400036E770B504462546681EB0F1807F01D3A8
:1017500001200FE0681E4FF0E02148610F214FF09B
:10176000FF3001F067FD00204FF0E0218861072085
:101770000861002070BD10B50346002200BF93F839
:101780003C00012801D1022010BD012083F83C005B
:1017900000BF22F0FF00CC6840EA040222F440704F
:1017A0008C6840EA040222F480604C6840EA04023B
:1017B00022F400600C6840EA040222F480500C69B4
:1017C00040EA040222F400504C6940EA040222F488
:1017D0008040CC6940EA04021868426400BF0020DF
:1017E00083F83C0000BF00BFCEE7000030B50246E2
:1017F0000B4600BF92F83C00012801D1022030BD09
:10180000012082F83C0000BF022082F83D001068F1
:1018100044681068816824F07004186804431068F4
:101820004460104D1068A8420BD01068B0F1804F92
:1018300007D00D4D1068A84203D00C4D1068A84287
:1018400005D121F0800158680143106881600120B2
:1018500082F83D0000BF002082F83C0000BF00BFBE
:10186000CDE70000002C01400004004000080040CB
:1018700010B504460CB9012010BD94F83D0028B9FC
:10188000002084F83C00204600F026F8022084F86E
:101890003D00211D206801F0D7F8012084F84600A2
:1018A00000BF84F83E0001213F2001554020015532
:1018B0004120015500BF00BF012084F842004320B1
:1018C0000155442001554520015500BF012084F8F1
:1018D0003D000020D0E7000008B5094A01689142A8
:1018E0000DD100BF0749896941F40061054A916142
:1018F0001146896901F40061009100BF00BF08BD75
:10190000002C0140001002402DE9F04104460D4634
:1019100000BF94F83C00012802D10220BDE8F0810C
:10192000012084F83C0000BF022084F83D002068BC
:10193000866826F0770626F47F4620688660286849
:10194000502833D00CDC202850D004DC00284BD0A9
:10195000102851D149E0302849D040284CD139E0F5
:1019600060282DD0702807D0B0F5805F03D0B0F587
:10197000005F41D10DE040E0D5E902136A682068BC
:1019800001F09CF82068866846F07706206886603B
:1019900033E0D5E902136A68206801F08FF8206807
:1019A000806840F480402168886026E0EA686968C1
:1019B000206801F0A8F95021206801F08AF81CE0A5
:1019C000EA686968206801F0B1F96021206801F0D7
:1019D00080F812E0EA686968206801F094F9402113
:1019E000206801F076F808E000BF00BF00BF29685A
:1019F000206801F06EF800E000BF00BF012084F80D
:101A00003D0000BF002084F83C0000BF00BF85E718
:101A100070B504460E46154600BF94F83C000128F8
:101A200001D1022070BD012084F83C0000BF35B117
:101A3000042D09D0082D0CD00C2D14D10EE0314608
:101A4000206801F04FF80FE03146206801F07AF885
:101A50000AE03146206801F0A9F805E03146206827
:101A600001F0D8F800E000BF00BF00BF002084F8FC
:101A70003C0000BF00BFD5E710B504460CB90120FB
:101A800010BD94F83D0028B9002084F83C002046A1
:101A900000F025F8022084F83D00211D206800F0A8
:101AA000D3FF012084F8460000BF84F83E000121E6
:101AB0003F200155402001554120015500BF00BF86
:101AC000012084F84200432001554420015545205F
:101AD000015500BF012084F83D000020D0E7704789
:101AE00070B504460D4600BF94F83C00012801D1B2
:101AF000022070BD012084F83C0000BF022084F861
:101B00003D002946204601F0A9F848B1012084F89B
:101B10003D0000BF002084F83C0000BF0120E8E742
:101B20002068C06820F040002168C8602068C06854
:101B300020F480402168C860012084F83D0000BF87
:101B4000002084F83C0000BF00BFD2E77047704718
:101B50002DE9F84F0446206805682068C6682068AB
:101B600047694FF00009CA4605F00F09B9F1000FA7
:101B70000AD105F0200038B106F0200020B120463F
:101B800001F01DF9BDE8F88FB9F1000F71D007F031
:101B9000010018B906F4907000286AD005F0010021
:101BA00030B106F4807018B1206C40F00100206460
:101BB00005F0040030B107F0010018B1206C40F0CE
:101BC0000200206405F0020030B107F0010018B1F6
:101BD000206C40F00400206405F0080048B106F0D5
:101BE000200010B907F0010018B1206C40F0080087
:101BF0002064206C68B305F0200028B106F02000B6
:101C000010B1204601F0DBF820684069C0F3801A6B
:101C1000206C00F0080010B9BAF1000F22D0204665
:101C200001F0A2F82068406900F04000B0B12068DF
:101C3000406920F0400021684861A06B50B15648CF
:101C4000A16B4863A06BFEF7F1FA10B1A06B416B7A
:101C500088470CE02046FFF77AFF08E02046FFF7B0
:101C600076FF04E02046FFF772FF0020206489E73A
:101C7000FFE7206B012878D105F01000002874D010
:101C800006F01000002870D000BF002000902068EF
:101C90000068009020684068009000BF00BF206886
:101CA000406900F04000C0B3A06B006840681FFAB4
:101CB00080F8B8F1000F2FD0A08D40452CDDA4F89E
:101CC0002E80A06B806920281FD02068C06820F477
:101CD00080702168C8602068406920F00100216898
:101CE00048612068406920F0400021684861202058
:101CF00084F83E00002020632068C06820F01000B7
:101D00002168C860A06BFEF765FAA08DE28D801A8D
:101D100081B22046FFF71AFF34E7FFE7A08DE18D7F
:101D2000401A1FFA80F8E08DE8B1B8F1000F1AD020
:101D30002068C06820F490702168C86020684069FD
:101D400020F0010021684861202084F83E00002036
:101D500020632068C06820F010002168C8604146F8
:101D60002046FFF7F3FE0DE7FFE705F0800030B1F6
:101D700006F0800018B1204601F035F902E705F0C1
:101D8000400030B106F0400018B1204601F007F8DD
:101D9000F8E600BFF6E60000552D000810B5044631
:101DA0000CB9012010BDA06900B100E000BF94F89B
:101DB0003D0028B9002084F83C00204600F028F8B7
:101DC000242084F83D002068C06820F40050216879
:101DD000C860204601F066F82068006920F4904051
:101DE000216808612068406920F02A002168486164
:101DF0002068C06840F400502168C860002020645A
:101E0000202084F83D0084F83E000020CAE700004E
:101E100010B586B00446002002900390049005900F
:101E20001E492068884236D100BF1D48806940F4B1
:101E300080401B4988610846806900F48040019019
:101E400000BF00BF00BF0846806940F00400886101
:101E50000846806900F00400019000BF00BF4815EB
:101E60000290022003900320059002A90D48FEF77E
:101E700049FA4FF48060029000200390049002A978
:101E80000848FEF73FFA002211462520FEF75EFCC7
:101E90002520FEF74BFC06B010BD000000380140C5
:101EA000001002400008014070B504460D46164679
:101EB00094F83E00202816D105B10EB9012070BD5E
:101EC00000BF94F83C00012801D10220F7E701206F
:101ED00084F83C0000BF002020633246294620469B
:101EE00001F05EF8EBE70220E9E7000010B50446D8
:101EF00012492068884209D11148017811480278B6
:101F00000078401C0F4B18700F4881540D48007822
:101F1000072806D00A480078FF2802D10020094986
:101F2000087008480078072802D100200549087089
:101F3000012203490548FFF7B7FF10BD00380140F3
:101F40000E0000200D0000200F000020E000002007
:101F50002DE9F84F04460E46174699464FF0000A01
:101F600094F83D0020285AD106B117B90120BDE8E8
:101F7000F88F00BF94F83C00012801D10220F6E759
:101F8000012084F83C0000BF00202064212084F858
:101F90003D00FEF755FB8246A784E784A068B0F5B4
:101FA000805F04D1206910B90025B04602E03546B3
:101FB0004FF0000800BF002084F83C0000BF1BE089
:101FC0005346002280212046CDF8009001F03BF8D6
:101FD00008B10320CBE745B9B8F80000C0F308000A
:101FE0002168486008F1020803E028782168486009
:101FF0006D1CE08C401EE084E08C0028E0D153464C
:10200000002240212046CDF8009001F01CF808B1D4
:102010000320ACE7202084F83D000020A7E7022041
:10202000A5E7704700BFFEE72DE9F04104460D46E5
:1020300016461F462B2000F0B7F9201200F0D2F907
:10204000E0B200F0CFF9301200F0CCF9F0B200F0BD
:10205000C9F92A2000F0A8F9281200F0C3F9E8B263
:1020600000F0C0F9381200F0BDF9F8B200F0BAF98A
:102070002C2000F099F9BDE8F08170B505460E46B8
:10208000144633462A4631462846FFF7CDFFE0B2D4
:1020900000F0A8F9201200F0A5F970BD2DE9F04775
:1020A00006460F4614461D46DDF82080681E83B2A2
:1020B000601E82B239463046FFF7B6FFB14613E0E4
:1020C000BA460BE008F0FF0000F08CF94FEA282038
:1020D00000F088F90AF101001FFA80FAAA45F1DB45
:1020E00009F101001FFA80F9A145E9DBBDE8F0879D
:1020F00010B5012291026F48FEF79CFA0A20FEF704
:10210000EDF800224FF480616A48FEF793FA00224E
:1021100002216848FEF78EFA012202216548FEF787
:1021200089FA012291026348FEF784FA012000F047
:102130003BF9112000F038F90A20FEF7CFF83620DD
:1021400000F032F9402000F04DF93A2000F02CF96F
:10215000052000F047F9B22000F026F90C2000F02D
:1021600041F90C2000F03EF9002000F03BF933204B
:1021700000F038F9332000F035F9B72000F014F9F9
:10218000352000F02FF9BB2000F00EF9352000F0CB
:1021900029F9C02000F008F92C2000F023F9C22012
:1021A00000F002F9012000F01DF9FF2000F01AF9FB
:1021B000C32000F0F9F8132000F014F9C42000F057
:1021C000F3F8202000F00EF9C62000F0EDF80F2003
:1021D00000F008F9D02000F0E7F8A42000F002F9A0
:1021E000A12000F0FFF8E02000F0DEF8F02000F081
:1021F000F9F8002000F0F6F8042000F0F3F80420CD
:1022000000F0F0F8042000F0EDF8052000F0EAF806
:10221000292000F0E7F8332000F0E4F83E2000F039
:10222000E1F8382000F0DEF8122000F0DBF8122090
:1022300000F0D8F8282000F0D5F8302000F0D2F8CF
:10224000E12000F0B1F8F02000F0CCF8072000F019
:10225000C9F80A2000F0C6F80D2000F0C3F80B20E2
:1022600000F0C0F8072000F0BDF8282000F0BAF810
:10227000332000F0B7F83E2000F0B4F8362000F02C
:10228000B1F8142000F0AEF8142000F0ABF82920CB
:1022900000F0A8F8322000F0A5F8112000F084F832
:1022A000132000F081F8382000F07EF8292000F09B
:1022B0007BF810BD000C01402DE9FE4F0546884615
:1022C00091469B4620260095304606EBD0714C1077
:1022D0002046E21704EB5272D2102146E31704EBBA
:1022E0005373DB10A4EBC3030BB1012300E0002305
:1022F0001A44724392B20192A9F1200000F0FF0942
:1023000008EB0600401E83B22819401E82B24146E7
:102310002846FFF789FE002728E04FF0000A1FE05B
:10232000154800EB8910C15D0291012000FA0AF006
:102330000299084020B15A4641462846FFF79DFEC3
:10234000681C85B20098281AA04205D1009D08F1AA
:1023500001001FFA80F806E00AF1010000F0FF0A10
:10236000BAF1080FDCDB00BF781C87B20198874206
:10237000D3DBBDE8FE8F0000283900082DE9F041CD
:1023800005460E4614461F4609E022783B46314674
:102390002846FFF791FF05F1100085B2641C2078F4
:1023A0000028F2D1BDE8F08110B5044600224FF4B8
:1023B00080610B48FEF73EF9002201210848FEF734
:1023C00039F9204600F02CF8012211460448FEF7A6
:1023D00031F9012291020248FEF72CF910BD0000EC
:1023E000000C014010B5044600224FF480610B48F8
:1023F000FEF720F9012211460848FEF71BF9204696
:1024000000F00EF8002201210448FEF713F9012222
:1024100091020248FEF70EF910BD0000000C0140C9
:1024200001B54FF6FF73012269460248FFF7B2F883
:1024300008BD00004000002000B585B000200190DC
:1024400002900390049000BF2348806940F0200070
:10245000214988610846806900F02000009000BF93
:1024600000BF00BF0846806940F00400886108464C
:10247000806900F00400009000BF00BF00BF084664
:10248000806940F0080088610846806900F0080013
:10249000009000BF00BF002248F207410F48FEF73E
:1024A000C9F84FF4C0700190002002900120039001
:1024B00001A90B48FDF726FF48F2074001900120D3
:1024C0000290002003900220049001A90348FDF728
:1024D00019FF05B000BD000000100240000C0140D3
:1024E000000801401CB50020019000901A481B49CB
:1024F00008604FF0FF3048604FF4807117488160EA
:10250000FEF708FE08B1FDF764FE0B208DF804000D
:102510002F208DF8050000208DF80600002201A96B
:102520000E48FEF7FBFE08B1FDF753FE00208DF8C4
:10253000000001208DF801000F208DF80200172007
:102540008DF80300002269460448FEF76BFE08B1CF
:10255000FDF73FFE1CBD0000002800402C000020BD
:1025600010B50E480E4908604FF482704860002193
:102570000B488160C160016141614FF4007181616C
:102580000821C16100210162416281620A21C162A8
:10259000FEF752FF08B1FDF71CFE10BD00300140F0
:1025A0004000002000B59BB00020179018901990B3
:1025B0001A90142112A8FDF7BCFD00201090119074
:1025C0001C2109A8FDF7B5FD202101A8FDF7B1FDEB
:1025D0002E482F4908600020486000212C48816067
:1025E0004FF6FF71C1600021016141618161FFF718
:1025F0003FF908B1FDF7EDFD4FF48050179017A992
:102600002348FFF781F908B1FDF7E3FD2048FFF704
:1026100033FA08B1FDF7DDFD002012901020139071
:1026200012A91B48FFF75CFA08B1FDF7D2FD0020A4
:102630001090119010A91648FFF7D8F808B1FDF7CF
:10264000C8FD002009900A900B900C900D900E9000
:102650000F90002209A90E48FFF7DAF908B1FDF73B
:10266000B8FD0020019002900390049005904FF473
:10267000005006900020089001A90548FFF77BF85C
:1026800008B1FDF7A6FD1BB000BD0000002C014005
:102690009800002010B50B480B4908604FF4165005
:1026A0004860002108488160C16001610C214161DE
:1026B00000218161C161FFF771FB08B1FDF789FD60
:1026C00010BD000000380140E000002000BFFEE720
:1026D0007047704708B508490968C9084FF47A720D
:1026E000B1FBF2F14143009100BF00BF00994A1EC7
:1026F00000920029F9D108BD1C000020014600BF4E
:10270000080900EB8000420001F00F001044C0B245
:10271000704770B504460025FDF792FF054607E0B7
:10272000FDF78EFF401BB0F57A7F01D9032070BD05
:102730002068406800F020000028F1D02068406840
:1027400040F01000216848600020F0E770B50446B2
:1027500000252068406820F0100021684860FDF7DF
:102760006FFF054607E0FDF76BFF401BB0F57A7F72
:1027700001D9032070BD2068406800F020000028C7
:10278000F1D00020F6E70146002200230868006A25
:1027900082B20868406A83B243EA0240704730B5AB
:1027A000014600220023002400200D68AD69AAB272
:1027B0000D68ED69ACB20D68AD69ABB29A4205D057
:1027C0000D68ED6963F31F45284601E044EA0240C5
:1027D00030BDF0B504460B460021002504F5FA6132
:1027E000032B1BD2C3EBC30000EB03100926B0FB85
:1027F000F6F01044001D4618481E06EB90066427AC
:10280000B0FBF7F0361A481EBF00B0FBF7F03044BB
:102810000726B0FBF6F706FB17051AE0C3EBC3006B
:1028200000EB03100926B0FBF6F01044001D08442D
:1028300000EB91006426B1FBF6F6801B4FF4C876DE
:10284000B1FBF6F63044801E0726B0FBF6F706FB18
:102850001705E8B2F0BD70B504460D4600262046C7
:10286000FFF757FF08B101260AE0280C216808622B
:10287000A8B2216848622046FFF768FF00B1012630
:10288000304670BD70B504460D4600262046FFF761
:1028900040FF08B101260AE0280C21688861A8B22F
:1028A0002168C8612046FFF751FF00B1012630467C
:1028B00070BDF8B504460D4616462B460022802111
:1028C0002046009600F00AF828B1606D40F0200024
:1028D00060650320F8BD0020FCE700002DE9F84FFB
:1028E00004460D4690461E46DDF82890FDF7A8FEEA
:1028F000A0EB0900371AFDF7A3FE82462C480068BA
:10290000C0F3CB307843009045E0701C002842D0E3
:10291000FDF796FEA0EB0A00B84200D2A7BB2068E4
:10292000406820F0E000216848606068B0F5827F70
:102930000DD1A068B0F5004F03D0A068B0F5806F4E
:1029400005D12068006820F0400021680860A06A76
:10295000B0F5005F0DD100BF2068006820F4005082
:10296000216808602068006840F400502168086011
:1029700000BF012084F8510000BF002084F85000FF
:1029800000BF0320BDE8F88FFFE7009800B90027DB
:102990000098401E0090206880682840A84201D11D
:1029A000012000E000204045AFD10020EAE7000010
:1029B0001C000020704710B5FDF748FE10BD00B5A3
:1029C00093B0282109A8FDF7B4FB142104A8FDF752
:1029D000B0FB00200090019002900390012009902C
:1029E00000040A9000200B9001200D90022010900E
:1029F000C10311914FF4E011129109A8FEF758F9A3
:102A000008B1FDF7E6FB0F2004900220059000209E
:102A100006904FF48060079000200890022104A8DF
:102A2000FEF710F808B1FDF7D4FB012000904FF439
:102A3000407001906846FDF76DFF08B1FDF7C9FBD6
:102A400013B000BD7047000010B50268184B9842E3
:102A500008D0B0F1804F05D0164B984202D0164BEB
:102A6000984203D122F070024B681A43104B9842EF
:102A700008D0B0F1804F05D00E4B984202D00E4BDB
:102A8000984203D122F44072CB681A4322F08003AB
:102A90004C6943EA040202608B68C3620B6883627C
:102AA000034B984201D10B6903630123436110BDBD
:102AB000002C0140000400400008004030B50C46E6
:102AC000816821F47F4142EA03252543294381603F
:102AD00030BD0A46816821F0700142F007031943B6
:102AE0008160704730B5056A25F001050562026A0C
:102AF0004368846924F0700424F003040D682C43B7
:102B000022F002028D682A430D4DA84206D100BF73
:102B100022F00802CD682A4322F00402084DA842A0
:102B200007D123F4807323F400734D692B438D691F
:102B30002B43436084614D684563026230BD0000F1
:102B4000002C014030B5056A25F010050562026AC7
:102B50004368846924F4E04424F440740D6844EA32
:102B6000052422F020028D6842EA05120E4DA8428B
:102B700007D100BF22F08002CD6842EA051222F0A0
:102B80004002094DA84209D123F4806323F4006375
:102B90004D6943EA85038D6943EA85034360846197
:102BA0004D688563026230BD002C014030B5056A76
:102BB00025F480750562026A4368C46924F07004D4
:102BC00024F003040D682C4322F400728D6842EA5D
:102BD00005220F4DA84207D100BF22F40062CD6844
:102BE00042EA052222F48062094DA84209D123F469
:102BF000805323F400534D6943EA05138D6943EA7A
:102C000005134360C4614D68C563026230BD0000B6
:102C1000002C014030B5056A25F480550562036A31
:102C20004468C26922F4E04222F440720D6842EA2C
:102C3000052223F400538D6843EA0533064DA8426C
:102C400004D124F480444D6944EA85144460C2618F
:102C50004D680564036230BD002C01402DE9F04150
:102C600005460C462868866826F0700660680643AC
:102C700026F007062068064328688660606800F032
:102C80000F0100293BD10011082838D2DFE800F0FD
:102C9000333435360B272D04D4E90313A268286892
:102CA000FFF70CFF2CE02068052802D10120BDE8C9
:102CB000F0812868D0F820802868006A20F00100A0
:102CC000296808622868876927F0F007206947EAC1
:102CD0000017286887612868C0F8208010E0226902
:102CE000A168286800F00FF80AE02269A168286846
:102CF00000F01CF804E000BF00BF00BF00E000BF10
:102D000000BF0020D3E730B50B461446026A056ABF
:102D100025F001050562816921F0F00141EA041105
:102D200022F00A021A438161026230BD30B50B46BF
:102D30001446056A25F0100505628169026A21F4CE
:102D4000704141EA043122F0A00242EA031281619B
:102D5000026230BD70B505466C6A0020E085E084F3
:102D60002046FEF7F4FE70BD0168C96821F4907139
:102D70000268D1600168496921F00101026851616E
:102D8000016B012905D10168C96821F010010268B1
:102D9000D160202180F83E1000210163704710B5FA
:102DA00004462068C06820F040002168C8602020E8
:102DB00084F83D002046FFF734F9002010BDF8B537
:102DC000044694F83E00222869D1A068B0F5805FDF
:102DD0000CD1206950B90025A66A20684068C0F36C
:102DE00008003080A06A801CA06215E0A56A002659
:102DF000A068B0F5805F03D0A06828B9206918B931
:102E000020684068287004E02068406800F07F0077
:102E10002870A06A401CA062E08D401E80B2E08550
:102E2000A8BB2068C06820F020002168C860206826
:102E3000C06820F480702168C8602068406920F074
:102E4000010021684861202084F83E00206B0128A1
:102E50001ED1002020632068C06820F01000216887
:102E6000C8602068006800F0100010280AD100BF78
:102E70000020009020680068009020684068009062
:102E800000BF00BFA18D2046FEF760FE03E004E016
:102E90002046FFF72BF80020F8BD0020FCE70220B9
:102EA000FAE7000070B504462168096921F4405131
:102EB000E2681143226811612269A16811436269C5
:102EC00041EA02052168C96841F20C629143294335
:102ED0002268D1602168496921F44071A2691143D7
:102EE000226851612D4A2168914202D1FDF786FE88
:102EF00001E0FDF773FE00EBC00101EB0011626819
:102F00009200B1FBF2F100EBC00202EB0012636829
:102F10009B00B2FBF3F26423B2FBF3F202EBC203B9
:102F200003EB0212A1EB8201322202EB01116422B7
:102F3000B1FBF2F101F0F00100EBC00202EB001274
:102F400063689B00B2FBF3F26423B2FBF3F201EB84
:102F5000021200EBC00101EB001163689B00B1FBA2
:102F6000F3F100EBC00303EB00136668B600B3FB9C
:102F7000F6F36426B3FBF6F303EBC30606EB031389
:102F8000A1EB8301322303EB01116423B1FBF3F1C5
:102F900001F00F0111442268916070BD00380140BA
:102FA00010B5034699629A85DA85002018642220BC
:102FB00083F83E0000BF002083F83C0000BF186883
:102FC000C06840F480701C68E0601868406940F098
:102FD00001001C6860611868C06840F020001C682F
:102FE000E060002010BD014691F83D00212828D165
:102FF0008868B0F5805F0BD1086948B90A6A108803
:10300000C0F308000B685860086A801C086205E07D
:103010000B6A581C086218780B685860C88C401EF0
:1030200080B2C88458B90868C06820F080000B6876
:10303000D8600868C06840F040000B68D860002085
:1030400070470220FCE72DE9F04104460D46174683
:103050009846069E21E0701CF8B12EB1FDF7F0FAFB
:10306000A0EB0800B04218D92068C06820F4D070E6
:103070002168C8602068406920F00100216848612B
:10308000202084F83D0084F83E0000BF002084F832
:103090003C0000BF0320BDE8F081206800682840A4
:1030A000A84201D1012000E00020B842D3D0002086
:1030B000F1E7000010B50248FEF74AFD10BD000020
:1030C000E000002000BFFEE708B530480078632824
:1030D0000ED1002044234FF4A07201460090FEF769
:1030E000DDFF4FF6FF732AA200210846FFF746F9DD
:1030F0002648007858280ED1002044234FF4A072AF
:1031000001460090FEF7CAFF4FF6FF7325A200218B
:103110002020FFF733F91D48007850280ED10020F9
:1031200044234FF4A07201460090FEF7B7FF4FF61C
:10313000FF7321A200212020FFF720F91348007817
:103140004D280ED1002044234FF4A0720146009078
:10315000FEF7A4FF4FF6FF731CA200210846FFF7FD
:103160000DF90A48007842280ED1002044234FF47C
:10317000A07201460090FEF791FF4FF6FF7319A26F
:1031800000210846FFF7FAF808BD000018000020EB
:1031900044657669636520446973636F6E6E656329
:1031A000746564004465766963652069732072659F
:1031B00061647921000000005461736B2046696EE0
:1031C0006973686564212121000000003173742057
:1031D000566572746963616C2050726F66696C65C4
:1031E00000000000326E6420566572746963616C81
:1031F0002050726F66696C65000000000FB4084BC8
:1032000010B504A902AA039800F038F8044602A9F0
:10321000002000F0D4F9204610BC5DF814FB00003B
:10322000BF35000802480068C0F302207047000064
:103230000CED00E010B5002804DB0A07130E054A68
:10324000135406E00A07140E034A00F00F031B1F75
:10325000D45410BD00E400E018ED00E002E008C81E
:10326000121F08C1002AFAD170477047002001E000
:1032700001C1121F002AFBD1704700002DE9FF4F4A
:103280008BB088460546002606E025280BD0DDE9F0
:103290000D1290476D1C761C28780028F5D10FB0D0
:1032A0003046BDE8F08F0024A146A2460122AE4977
:1032B00000E0044315F8013F203B02FA03F0084206
:1032C000F7D128782A2810D06FF02F022878A0F1A3
:1032D0003001092915D809EB890102EB410144F0BD
:1032E000020400EB01096D1CF0E758F8041B5FEACB
:1032F000010903D544F40054C9F1000944F0020463
:103300006D1C28782E2817D115F8010F44F00404FD
:103310002A280ED06FF02F022878A0F13001092959
:103320000AD80AEB8A0102EB410100EB010A6D1C8D
:10333000F2E758F804AB6D1C28786C280FD006DC37
:103340004C2817D068280DD06A2814D104E07428BE
:1033500010D07A280FD10DE044F400140AE044F4B0
:10336000801401E044F440146978814202D104F5EC
:1033700080146D1C6D1C2878692865D006DC002837
:103380008DD0632827D0642806D15DE06E2808D050
:1033900073282AD0752877D0DDE90D129047761C66
:1033A000E0E0C4F30250022809D003280DD0D8F879
:1033B000001004280DD00E6008F10408D2E0D8F8FF
:1033C0000010F217C1E90062F6E7D8F800100E808D
:1033D000F2E70E70F0E718F8041B8DF800100020DB
:1033E0008DF80100EB46012003E058F804BB4FF0D4
:1033F000FF3061074FF0000701D40AE07F1C5745FA
:103400000DDA8742FADB1BF807100029F6D106E037
:103410007F1C8742FCDB1BF807100029F8D1DDE98F
:103420000D23A9EB07008146214600F0B1F8304496
:10343000C61904E0DDE90D121BF8010B90477F1E51
:10344000F8D22146484688E058F8040BC4F30251EC
:103450004FF00A0B032900D100B2042900D140B279
:10346000002802DA40422D2102E0210505D52B215A
:103470008DF82410012104E006E0E10710D020219E
:10348000F6E708AF089113E058F8040BC4F30251B3
:103490004FF00A0B032900D180B2042900D1C0B239
:1034A0000021EEE75946FCF769FE303107F8011DAF
:1034B0000028F7D1ADEB070000F1200B600702D523
:1034C00024F4803401E04FF0010ADA4502DDAAEB72
:1034D0000B0000E00020824600EB0B01089801443D
:1034E000A9EB01000A90E00306D4DDE90D23214693
:1034F0000A9800F04DF806444FF0000908E009A9C9
:1035000011F80900DDE90D12904709F10109761C57
:1035100008998945F3DBE0030CD5DDE90D2321464D
:103520000A9800F035F8064404E0DDE90D12302079
:103530009047761CBAF10001AAF1010AF5DC05E01A
:10354000DDE90D1217F8010B9047761CBBF1000165
:10355000ABF1010BF4DC0A982146DDE90D2300F004
:1035600005F806446D1C97E6092801002DE9F04195
:10357000044600251E461746880404D405E0394653
:103580002020B0476D1C641EF9D52846BDE8F081A7
:103590002DE9F041044600251E469046C80301D59A
:1035A000302700E02027880404D505E0414638464E
:1035B000B0476D1C641EF9D52846BDE8F0810A6845
:1035C000531C0B601070704710B54FF6FF7311A2BB
:1035D00088218020FEF7D2FE4FF6FF730DA28821CE
:1035E000B020FEF7CBFE4FF6FF730BA2AA2190206E
:1035F000FEF7C4FE4FF6FF7307A2AA21C020FEF714
:10360000BDFE4FF6FF7305A244215020FEF7B6FE23
:1036100010BD00003A0000002D0000005465616DEF
:10362000204E616D6531000008B5002066234FF41F
:10363000A07244210090FEF731FD4FF6FF7303A204
:1036400044218020FEF79AFE08BD0000455830371F
:103650000000000008B5FDF705F8FFF7B0F9FEF728
:10366000EBFEFEF77DFFFEF73DFFFEF79BFFFFF74A
:1036700011F8FEF73DFD0020F0234FF4A072014643
:103680000090FEF70BFDFFF79FFFFFF71DFD0122E6
:1036900090499148FEF708FC1BE1904800785828B3
:1036A00012D14FF480718E48FCF7BCFF60B94D20F9
:1036B0008A490870FFF708FD4D208A490870642385
:1036C00001228548FEF744FC844800784D2812D139
:1036D0004FF480718248FCF7A5FF60B942207F4912
:1036E0000870FFF7F1FC42207E4908706423012234
:1036F0007948FEF72DFC79480078422811D14FF423
:1037000080717748FCF78EFF58B9502073490870D4
:1037100074490870642301226F48FEF719FCFFF713
:10372000D3FC6E480078502811D14FF480716C485A
:10373000FCF778FF58B95820684908706949087043
:10374000642301226448FEF703FCFFF7BDFC6648D2
:10375000027866A16748FFF751FD6348427863A18C
:103760006548FFF74BFD6048827860A16348FFF72A
:1037700045FD5D48C07800F5FA625CA16048FFF73E
:103780003DFD5948027959A15E48FFF737FD56487B
:10379000427956A15C48FFF731FD56495B48FCF77A
:1037A000DFFC88B10023594A88216020FEF7E6FD3E
:1037B000142250495548FCF7C7FC4FF6FF73534A93
:1037C00088216020FEF7DAFD4B495148FCF7C8FC20
:1037D00088B100234E4A88219020FEF7CFFD1422A5
:1037E00045494B48FCF7B0FC4FF6FF73484A882127
:1037F0009020FEF7C3FD41494648FCF7B1FC00B3F9
:103800000023444A8821C020FEF7B8FD14223B491A
:103810004048FCF799FC4FF6FF733E4A8821C020D0
:10382000FEF7ACFD2D4800784D280AD13A480078C3
:10383000401C39490870084600780F2801D1FFF76D
:10384000F3FE2F493548FCF78BFC88B10023334A3F
:10385000AA215020FEF792FD142229492F48FCF797
:1038600073FC4FF6FF732D4AAA215020FEF786FD08
:1038700024492B48FCF774FC88B10023284AAA216C
:10388000A020FEF77BFD14221E492548FCF75CFCB6
:103890004FF6FF73224AAA21A020FEF76FFD1A49B6
:1038A0002048FCF75DFC88B100231E4AAA21D020E5
:1038B000FEF764FD142214491A48FCF745FC4FF644
:1038C000FF73184AAA21D020FEF758FD6420FCF7A8
:1038D00005FDE2E60E000020E000002018000020B8
:1038E00000080140160000200F000020253032643F
:1038F0000000000038010020600100208801002045
:10390000B0010020D8010020000200202401002086
:103910004C010020740100201B0000209C010020AD
:10392000C4010020EC0100200000000000000000A5
:103930000000000000000000000000000000000087
:103940000000000000000000000000000000000077
:103950000000000000000000000000000000000067
:103960000000000000000000000000000000000057
:103970000000C001C001C001C001C001C001C00100
:1039800080008000800080008000800080000000B7
:103990000000000000008001C003C003800100009F
:1039A0000000000000000000000000000000E01C1B
:1039B000E01CF01E700E3807180308018400000098
:1039C00000000000000000000000000000000000F7
:1039D00000000000000000000000000000000000E7
:1039E00000000000000000000000000000000000D7
:1039F0000000000020102010201020102010FE7F5A
:103A0000FE7F100810081008100810081008100891
:103A1000FE7FFE7F08040804080408040804000070
:103A20000000000000000000000000000000000096
:103A300000010001C0076019103118311839183918
:103A400038017001E001C0038007000F001D00393C
:103A500000311C311C310C310C11180DE007000134
:103A60000001000100000000000000000000000054
:103A7000000000001C1036186308630C6304630424
:103A8000630263026301361D9C37802280634063BA
:103A9000406320632063306310221836081C000046
:103AA0000000000000000000000000000000000016
:103AB00000000000F00098018C018C018C018C0149
:103AC0008C00CC007800183E1C08360832086304CD
:103AD0006304C304C303834306438E26781C00009B
:103AE00000000000000000000000000000001C00BA
:103AF0003C003C003000300010000C0006000000CC
:103B000000000000000000000000000000000000B5
:103B100000000000000000000000000000000000A5
:103B20000000000000000000000000000000004055
:103B3000002000100008000C000400060003000331
:103B400000038001800180018001800180018001EB
:103B5000800100030003000300060006000C0008BB
:103B600000100020004000000000000000000200E3
:103B7000040008001000300020006000C000C000F9
:103B8000C0008001800180018001800180018001EE
:103B90008001C000C000C000600060003000100064
:103BA0000800040002000000000000000000000007
:103BB00000000000000000000001800380030001FD
:103BC0001C713C79783DC0070001C007783D3C7905
:103BD0001C710001800380038001000000000000D0
:103BE00000000000000000000000000000000000D5
:103BF00000000000000000000000000100010001C2
:103C00000001000100010001FC7F00010001000132
:103C100000010001000100010000000000000000A0
:103C20000000000000000000000000000000000094
:103C30000000000000000000000000000000000084
:103C40000000000000000000000000000000000074
:103C500000000000000000001C003C003C003000A0
:103C6000300010000C000600000000000000000002
:103C70000000000000000000000000000000000044
:103C80000000000000000000FE7F000000000000B7
:103C90000000000000000000000000000000000024
:103CA0000000000000000000000000000000000014
:103CB0000000000000000000000000000000000004
:103CC00000000000000000000000000000000000F4
:103CD00000000000000018003C003C00180000003C
:103CE0000000000000000000000000000000004094
:103CF000006000200030001000180008000C0004D4
:103D0000000600020003000180018000C0004000A6
:103D10006000200030001000180008000C000400B3
:103D2000060002000000000000000000000000008B
:103D300000000000C007600C301818301830182040
:103D40000C600C600C600C600C600C600C600C6013
:103D50000C601820183018303018600CC0070000B4
:103D60000000000000000000000000000000000053
:103D70000000000000018001F80180018001800145
:103D8000800180018001800180018001800180012B
:103D900080018001800180018001C003F81F0000C4
:103DA0000000000000000000000000000000000013
:103DB00000000000E007101C0818043004300C302C
:103DC0000C300030001800080004000200018000E0
:103DD00040002020102008200430FC1FFC1F0000A1
:103DE00000000000000000000000000000000000D3
:103DF00000000000E003180E0C0C0C180C180C1836
:103E00000018000C0006C003000E0018001000305F
:103E100000300C300C300C100C18180CE0030000B3
:103E20000000000000000000000000000000000092
:103E300000000000000C000E000E000F800E800E2F
:103E4000400E600E200E100E100E080E040E040E12
:103E5000FE7F000E000E000E000E000E000EC07F52
:103E60000000000000000000000000000000000052
:103E700000000000F03FF03F1000100010000800AC
:103E80000800C807280C181808100030003000304F
:103E900000300C300C3004180418080CF00300003B
:103EA0000000000000000000000000000000000012
:103EB00000000000800FC0102030103018001800E3
:103EC00008000C008C0F6C183C301C600C600C60FF
:103ED0000C600C601860182030306018C0070000BB
:103EE00000000000000000000000000000000000D2
:103EF00000000000F83FF83F1C100C080408040400
:103F000000040002000200010001000180008000A6
:103F10008000C000C000C000C000C000C0000000A1
:103F20000000000000000000000000000000000091
:103F300000000000E007300C18180C300C300C307A
:103F40001C3038187008E007B007180E0C1C063833
:103F500006300630063006300C18180CE00300005E
:103F60000000000000000000000000000000000051
:103F700000000000E00318040C080C1806100630BE
:103F800006300630063006380C3C1836F03100306A
:103F90000018001800180C0C0C060C03F0010000AF
:103FA0000000000000000000000000000000000011
:103FB0000000000000000000000000000000000001
:103FC00000008001C003C003800100000000000069
:103FD0000000000000008001C003C0038001000059
:103FE00000000000000000000000000000000000D1
:103FF00000000000000000000000000000000000C1
:104000000000C000C0000000000000000000000030
:1040100000000000000000000000C000C0008000A0
:104020008000400040000000000000000000000090
:1040300000000020001000080004000600038001BA
:10404000C0006000300018000C0018003000600054
:10405000C0008001000300060004000800100020DA
:104060000000000000000000000000000000000050
:104070000000000000000000000000000000000040
:104080000000FE7F00000000000000000000FE7F36
:104090000000000000000000000000000000000020
:1040A0000000000000000000000000000000000010
:1040B000000004000800100020006000C000800123
:1040C00000030006000C001800300018000C000669
:1040D00000038001C0006000200010000800040000
:1040E00000000000000000000000000000000000D0
:1040F0000000C0073018083008600C601C601C60AD
:104100001C600030001C0006000180008000800060
:104110008000000000008001C003C0038001000097
:10412000000000000000000000000000000000008F
:1041300000000000C0076018103018200C2F8C4DB4
:10414000864CC64CC64C664C66446644662666265B
:104150006615CC1C0C40082018303018C007000031
:10416000000000000000000000000000000000004F
:1041700000000001C001C001C00140016003200334
:10418000200320033006100610061006F80F080C56
:10419000080C080C0C0C0418041806181F7C0000EE
:1041A000000000000000000000000000000000000F
:1041B00000000000FE07181C18381830183018309E
:1041C00018301818180CF80718181830182018602C
:1041D000186018601860186018301818FE0F00007A
:1041E00000000000000000000000000000000000CF
:1041F00000000000C0276038103018200C400C4030
:104200000400060006000600060006000600060080
:1042100006000C400C400C2018303018C00700007D
:10422000000000000000000000000000000000008E
:1042300000000000FE03180E18181830183018304F
:1042400018601860186018601860186018601860AE
:1042500018601830183018101818180EFE030000D7
:10426000000000000000000000000000000000004E
:1042700000000000FE3F1830182018601840180099
:1042800018081808180CF80F180C18081808180047
:10429000180018001840184018201830FE3F000081
:1042A000000000000000000000000000000000000E
:1042B00000000000FE7F1870184018C01880180019
:1042C000181018101818F81F1818181018101800BF
:1042D0001800180018001800180018007E000000D0
:1042E00000000000000000000000000000000000CE
:1042F00000000000C013701C101018100C200C20BF
:1043000004000600060006000600060006FC063053
:1043100006300C300C30183018303008C007000060
:10432000000000000000000000000000000000008D
:10433000000000003F7E0C180C180C180C180C180C
:104340000C180C180C180C18FC1F0C180C180C1856
:104350000C180C180C180C180C180C183F7E0000C8
:10436000000000000000000000000000000000004D
:1043700000000000F81F80018001800180018001A1
:104380008001800180018001800180018001800125
:10439000800180018001800180018001F81F000000
:1043A000000000000000000000000000000000000D
:1043B00000000000E07F0006000600060006000680
:1043C00000060006000600060006000600060006BD
:1043D00000060006000600060006000600060006AD
:1043E0000E060E038E01FC0000000000000000001D
:1043F000000000007E7C181818081804180618021F
:10440000180198019801D801B80338031807180655
:10441000180E180C181C1818183018307EFC0000E4
:10442000000000000000000000000000000000008C
:10443000000000007E001800180018001800180086
:1044400018001800180018001800180018001800AC
:10445000180018001840184018201830FE3F0000BF
:10446000000000000000000000000000000000004C
:10447000000000001FF81C381C381C381C3C343469
:1044800034343434343674326432643264326431F5
:10449000C431C431C431C430C43084309FFC000006
:1044A000000000000000000000000000000000000C
:1044B000000000001F7C1C103C10341034107410DD
:1044C0006410E410C410C41184118413041304177D
:1044D0000416041E041C041C041C04181F180000ED
:1044E00000000000000000000000000000000000CC
:1044F00000000000C003300C181808100C300C30FD
:10450000066006600660066006600660066006607B
:1045100006600C200C3008101818300CC003000086
:10452000000000000000000000000000000000008B
:1045300000000000FE0F181818301860186018608E
:104540001860186018301818F80F180018001800B4
:104550001800180018001800180018007E0000004D
:10456000000000000000000000000000000000004B
:1045700000000000C003300C18180C100C300C2088
:1045800006600660066006600660066006600660FB
:104590000660E4612C331C321816300EC007004C44
:1045A000007C003800000000000000000000000057
:1045B00000000000FE07181C18381830183018309A
:1045C00018301818180CF80798031803180718065D
:1045D0001806180E180C180C181C18187E780000F5
:1045E00000000000000000000000000000000000CB
:1045F00000000000E027303818300C200C200C00A0
:104600000C0018007800E003800F001E00380070D6
:10461000006004600460086018303818C80F00009B
:10462000000000000000000000000000000000008A
:1046300000000000FC3F8C218461824182418001A6
:104640008001800180018001800180018001800162
:10465000800180018001800180018001E00700006D
:10466000000000000000000000000000000000004A
:10467000000000003F7C0C100C100C100C100C10F3
:104680000C100C100C100C100C100C100C100C104A
:104690000C100C100C100C1008083804E00300007B
:1046A000000000000000000000000000000000000A
:1046B000000000003EF8182018201820301030109C
:1046C00030103010600860086008E00CC004C004BE
:1046D000C004800380038003800300010001000008
:1046E00000000000000000000000000000000000CA
:1046F00000000000DFF38661862186218C210C21D9
:104700008C238C138C138C134C1358125816580E80
:10471000380E380E380E300C10041004100400004F
:104720000000000000000000000000000000000089
:10473000000000007E3E1808380830043004700283
:104740006002E001C001C001800180034003400716
:1047500020062006100C100C081808183E7C0000DB
:104760000000000000000000000000000000000049
:10477000000000007E7C1C10181018083008300C57
:10478000700460046002C002C002C00180018001A8
:10479000800180018001800180018001E00700002C
:1047A0000000000000000000000000000000000009
:1047B00000000000F83F18180818040C040E00064A
:1047C0000007000380038001C001C000E00060001A
:1047D00070003000382018201C100C18FE1F00003C
:1047E0000000000000000000000000000000C03FCA
:1047F00040004000400040004000400040004000B9
:1048000040004000400040004000400040004000A8
:104810004000400040004000400040004000400098
:104820004000C03F00000000000000000000000049
:104830000000080018001800100030002000600080
:1048400060004000C0008000800180010001000382
:104850000002000600060004000C00080018001802
:104860000010003000200000000000000000FC03E9
:104870000002000200020002000200020002000228
:104880000002000200020002000200020002000218
:104890000002000200020002000200020002000208
:1048A0000002FC0300000000000000000000800780
:1048B000C0062008101000000000000000000000EA
:1048C00000000000000000000000000000000000E8
:1048D00000000000000000000000000000000000D8
:1048E00000000000000000000000000000000000C8
:1048F00000000000000000000000000000000000B8
:1049000000000000000000000000000000000000A7
:104910000000000000000000000000000000000097
:10492000000000000000FFFF000000000000780011
:10493000C0000001000000000000000000000000B6
:104940000000000000000000000000000000000067
:104950000000000000000000000000000000000057
:104960000000000000000000000000000000000047
:104970000000000000000000000000000000000037
:104980000000F00318060C0C0C0C000C800F700CCF
:104990001C0C0C0C060C060C064C0C4FF8380000D6
:1049A0000000000000000000000000000000000007
:1049B000000010001E001800180018001800180051
:1049C0001800180FD8183830386018601860186050
:1049D000186018601860182038307818C807000070
:1049E00000000000000000000000000000000000C7
:1049F00000000000000000000000000000000000B7
:104A00000000C007700C181818180C180C000C00C7
:104A10000C000C000C20182018103008C0070000F3
:104A20000000000000000000000000000000000086
:104A300000000010001E00180018001800180018D0
:104A40000018E01B301C181818180C180C180C183B
:104A50000C180C180C180818181C307AE009000003
:104A60000000000000000000000000000000000046
:104A70000000000000000000000000000000000036
:104A80000000C007300C181808100C300C30FC3F28
:104A90000C000C000C00182018107018C007000043
:104AA0000000000000000000000000000000000006
:104AB00000000000003E80C380C0C0C0C000C00035
:104AC000C000FC1FC000C000C000C000C000C0008B
:104AD000C000C000C000C000C000C000F80F00004F
:104AE00000000000000000000000000000000000C6
:104AF00000000000000000000000000000000000B6
:104B00000000C077306C10181818181818181018F2
:104B1000300CF00718001800F00FF03F08700C6020
:104B20000C600C603838E00F00000000000000004E
:104B3000000010001E0018001800180018001800CF
:104B40001800980FD818383018301830183018302E
:104B50001830183018301830183018307EFC00002B
:104B60000000000000000000000000000000000045
:104B700000000000800380038003000000000000AC
:104B80000001F80180018001800180018001800125
:104B9000800180018001800180018001F81F0000F8
:104BA0000000000000000000000000000000000005
:104BB000000000000038003800380000000000004D
:104BC0000010801F001800180018001800180018A6
:104BD0000018001800180018001800180018001815
:104BE0000018180C1806F003000000000000000078
:104BF000000010001E00180018001800180018000F
:104C00001800183E180C1806180318019801D8014E
:104C1000380318071806180C181C18187E7C00009A
:104C20000000000000000000000000000000000084
:104C300000000001F80180018001800180018001F5
:104C4000800180018001800180018001800180015C
:104C5000800180018001800180018001F81F000037
:104C60000000000000000000000000000000000044
:104C70000000000000000000000000000000000034
:104C80000800EE1C9C338C318C318C318C318C3192
:104C90008C318C318C318C318C318C31DE7B00004D
:104CA0000000000000000000000000000000000004
:104CB00000000000000000000000000000000000F4
:104CC00010001E0FD818383018301830183018302F
:104CD0001830183018301830183018307EFC0000AA
:104CE00000000000000000000000000000000000C4
:104CF00000000000000000000000000000000000B4
:104D00000000C007701C103018300C600C600C6084
:104D10000C600C600C60183018303018C0070000B0
:104D20000000000000000000000000000000000083
:104D30000000000000000000000000000000000073
:104D400010009E0F5818383018201860186018602E
:104D500018601860186018303830781898071800F4
:104D60001800180018007E0000000000000000007D
:104D70000000000000000000000000000000000033
:104D80000000C023303C183818300C300C300C3088
:104D90000C300C300C3008301838303CE033003028
:104DA00000300030003000FC000000000000000077
:104DB00000000000000000000000000000000000F3
:104DC00060007E3C60666061E000E00060006000C2
:104DD000600060006000600060006000FE0700008E
:104DE00000000000000000000000000000000000C3
:104DF00000000000000000000000000000000000B3
:104E00000000E02730381830182018007000E00348
:104E1000800F001C043004300C301C18EC0F000014
:104E20000000000000000000000000000000000082
:104E30000000000000000000800080008000C00032
:104E4000E000FC1FC000C000C000C000C000C000E7
:104E5000C000C000C000C020C0208011000F0000B2
:104E60000000000000000000000000000000000042
:104E70000000000000000000000000000000000032
:104E800010201E3C183018301830183018301830E8
:104E90001830183018301830183830F4E01300008B
:104EA0000000000000000000000000000000000002
:104EB00000000000000000000000000000000000F2
:104EC00000007E3C181818083808300430047002BE
:104ED00060026002E001C001C001C000800000006B
:104EE00000000000000000000000000000000000C2
:104EF00000000000000000000000000000000000B2
:104F00000000DFF78E630C238C238C2398139813F7
:104F100058165816700E700E700E200420040000F3
:104F20000000000000000000000000000000000081
:104F30000000000000000000000000000000000071
:104F40000000FC3E70087004E004C002C001800351
:104F5000800340076006200C100C18183E7E0000ED
:104F60000000000000000000000000000000000041
:104F70000000000000000000000000000000000031
:104F800000007E7C181818083008300830046004CF
:104F90006004C002C002C002800180018001800064
:104FA000800080004C003C00000000000000000079
:104FB00000000000000000000000000000000000F1
:104FC0000000FC1F0C0C040E04060003800380018B
:104FD000C000E0007020302038301C18FC1F00009A
:104FE0000000000000000000000000000000003091
:104FF000000800040004000400040004000400048D
:105000000004000400040002800100020004000407
:105010000004000400040004000400040004000470
:105020000004000800300000000100010001000140
:105030000001000100010001000100010001000168
:105040000001000100010001000100010001000158
:105050000001000100010001000100010001000148
:1050600000010001000100010000000000000C0030
:105070001000200020002000200020002000200040
:10508000200020002000400080014000200020007F
:105090002000200020002000200020002000200010
:1050A000200010000C00000000003800C400864002
:1050B00002610022001C000000000000000000004F
:1050C00000000000000000000000000000000000E0
:1050D00000000000000000000000000000000000D0
:1050E00000000000000000000000000000000000C0
:1050F000010203040607080900000000010203047E
:1051000020510008000000202C0000005C32000844
:105110004C5100082C000020FC0500006C320008F7
:10512000000000000000000000000000000000007F
:105130000000000000000001580000000024F400FE
:0C51400000000000100000000100000052
:04000005080000ED02
:00000001FF
