:020000040800F2
:100000009805002001010008411A00083D1A000867
:100010003F1A00086D010008992000080000000048
:100020000000000000000000000000009F1B00080E
:100030006F01000800000000431A0008A11B00081F
:100040001B0100081B0100081B0100081B01000820
:100050001B0100081B0100081B0100081B01000810
:100060001B0100081B0100081B0100081B01000800
:100070001B0100081B0100081B0100081B010008F0
:100080001B0100081B0100081B0100081B010008E0
:100090001B0100081B0100081B0100081B010008D0
:1000A0001B0100081B0100081B0100081B010008C0
:1000B0001B0100081B0100081B0100081B010008B0
:1000C0001B0100081B0100081B0100081B010008A0
:1000D0001B0100088D2000081B0100081B010008FF
:1000E0001B0100081B0100081B010008DFF80CD0F1
:1000F00000F02AF800480047DD200008980500209D
:100100000648804706480047FEE7FEE7FEE7FEE7B1
:10011000FEE7FEE7FEE7FEE7FEE7FEE7031C00085A
:10012000ED000008D2B201E000F8012B491EFBD21D
:1001300070470022F6E710B513460A4604461946F2
:10014000FFF7F0FF204610BD064C074D06E0E068C3
:1001500040F0010394E8070098471034AC42F6D30E
:10016000FFF7C8FFA8230008C8230008FEE7704770
:1001700090F82110022912D1016801230A6822F0A7
:100180000E020A600A6822F001020A60D0E90F122A
:1001900003FA02F24A60002180F8213002E00421D3
:1001A00081630121002280F820200846704700006A
:1001B00090F8211002291BD102681F4B11689A4246
:1001C00021F00E011160116821F00101116019493F
:1001D00012D01A4B9A4211D0194B9A4210D0194B97
:1001E0009A4210D0184B9A4210D14FF4803315E048
:1001F000042181630120704701230FE010230DE0EB
:100200004FF480730AE04FF4805307E001F1680C6B
:100210004FF08073624508BF4FF480130B604FF4BA
:1002200080710184416B19B180B58847002080BD81
:100230000020704704000240080002401C000240F9
:10024000300002404400024058000240B0B504466D
:1002500000F0E2F80546EC48611C007818BF044441
:1002600000F0DAF8401BA042FAD3B0BD2DE9FC4FF4
:100270005A4A04234FF0000B4FF001084FF00F0EC5
:100280004FF000090025904208BF032300930A683D
:1002900032FA05F308BFBDE8FC8F08FA05F73A42C9
:1002A00000F097804A68032A16D9112A24D0122A0E
:1002B00026D04D4B9A4213D04C4B9A4210D04C4B07
:1002C0009A420DD04B4B9A420AD04B4B9A4207D0E0
:1002D0004A4B9A4204D020E0DFE802F00216191DD2
:1002E0008A6832B1012A4FF0080914BF47610761DB
:1002F00013E04FF0040910E0CA6802F104090CE0B1
:10030000CA6802F10C0908E0D1F80C9005E0CA684F
:1003100002F1080901E04FF00009082D5A46044691
:1003200028BF203A28BF043426680EFA02F309FADF
:1003300002F226EA03031A432260CA79D20648D59C
:10034000D94A0BF00C0C1346126842F001021A60F5
:100350001A680EFA0CF302F001020192204A019C85
:10036000AC08A2F57E7656F8242022EA030A244A35
:10037000904208D0234A904207D0234A009B9042E3
:1003800008BF022302E0002300E0012303FA0CF27D
:1003900042EA0A0246F82420114E4A68336812F4F1
:1003A000803F0CBFBB433B4333609303736854BF30
:1003B000BB433B437360D302B36854BFBB433B436F
:1003C0009202084AB3601346126854BFBA433A43D4
:1003D0001A600BF1040B013559E700BF001401400E
:1003E000000401400C040140000011100000121034
:1003F0000000211000002210000031100000321017
:1004000000080140000C014000100140002A08BF14
:10041000090401617047000093488068704700BF7D
:10042000B0B5044658B394F83D0028B9002084F8CC
:100430003C00204600F0B4F8242084F83D002068F9
:10044000016821F001010160016841F4004101608F
:10045000016821F40041016000F0F2FA4C49EB4BD5
:1004600000224C4D88424FF0000138BF01219842D4
:1004700038BF01226368AB4238BF0A460AB1012087
:10048000B0BD4549B0FBF1F221684D6825F03F054C
:1004900015434D600D6A25F03F0C404DAB4213D81B
:1004A0000132013842EA0C020A625A004CF6FF732C
:1004B000B0FBF2F001306FF31F30042898BF042026
:1004C000CA6922EA030C3AE04FF49675A0F1010ED6
:1004D0006A434FF47A75B2FBF5F24CF6FF750132C0
:1004E00042EA0C020A62CA6922EA050CA26842B119
:1004F000192004255843BEFBF0F0013065F31F308E
:1005000006E003EB4300BEFBF0F001306FF31F3059
:10051000000509D052B1192004225843BEFBF0F067
:10052000013062F31F3008E0012008E003EB4300D4
:10053000BEFBF0F001306FF31F3040F4004040EAA2
:100540000C00C8610868D4E9072320F0C0001043FC
:1005500048F2FF321843086088689043D4E90323C7
:10056000184310438860C868D4E9052320F0FF00D1
:1005700010431843C860086840F00100086000207C
:100580002021206484F83D10206384F83E00B0BD33
:1005900080841E00A186010040420F00A086010059
:1005A00010B586B00021CDE90411CDE90211016832
:1005B000114881421DD13C4C00F53840216841F082
:1005C00008012160216801F00801019101991221BF
:1005D0000391C02102910321059102A9FFF746FE74
:1005E000606840F400106060606800F400100190E2
:1005F000019806B010BD00BF005400401A480178B1
:1006000082681144816070477800002080B50748F7
:10061000016841F010010160032000F079F800202A
:1006200000F006F800F024F8002080BD0020024011
:1006300070B50D4E04464FF47A713078B1FBF0F08E
:100640000A490968B1FBF0F000F02CFE01250F2CDF
:1006500008D838B94FF0FF3021460022002500F0BD
:1006600035F87460284670BD7800002084000020B2
:1006700082B00D480222016841F001010160016869
:1006800001F0010101910199416841F080514160FF
:10069000406800F08050009000980448016862F3C0
:1006A0001A61016002B07047181002400400014056
:1006B000002808DB00F01F010122400902FA01F1C5
:1006C000014A42F82010704700E100E010B5164BD7
:1006D0001B68C3F3022E0EF1040CAEF103048EF07E
:1006E0000703BCF1070F4FF0010C38BF0024042BA7
:1006F00028BF04230CFA03F3013B19400CFA04F35E
:10070000013BA1401A401143BDE8104001F0C6BCB6
:1007100005494FF6FF030A681A4060F30A220348AE
:1007200010430860704700BF0CED00E00000FA05C0
:10073000014801210160704720000E42012813D0BA
:10074000022824D0102852D12A494A68086810F09B
:10075000807F4CD0C2F3834027A312F4803F185C03
:1007600024D1D84A50432AE02249086A00F4407252
:10077000B2F5407F2DD0B2F5007F31D0B2F5807F49
:1007800035D1800744BF4FF4004070472FE080B55B
:1007900000F060F9174902224968C1F3813102EB88
:1007A0004101B0FBF1F0BDE8804070474A6816A3F4
:1007B000C2F340429A5CBD4BB3FBF2F2504349682E
:1007C00011F4800F18BF704740000321B0FBF1F017
:1007D000704708684FF22441800301EAE0707047D7
:1007E000486A10F0020F1CBF49F6404070470020D5
:1007F000704700BF00100240020304050607080905
:100800000A0B0C0D0E0F10100102000000093D0034
:100810002DE9FC4104460078A34EC0075BD0B069C7
:1008200010F0805F0BD1B0694FF0010840F08050AC
:10083000B061B06900F080500190019801E04FF084
:100840000008304F386810F4807F11D1386840F4C8
:1008500080703860FFF7E0FD0546386810F4807F4F
:1008600006D1FFF7D9FD401B6428F6D9032045E0E7
:10087000F06910F4407020D0616801F44071884242
:100880001BD02149F06901220A60002210F0010FFB
:100890000A6020F44071F1610FD0FFF7BDFD0546FD
:1008A00041F28837F06910F0020F06D1FFF7B4FD6E
:1008B000411B0320B942F5D920E0F0696168B8F125
:1008C000000F20F4407040EA0100F0611EBFB069E3
:1008D00020F08050B061206810F0020F05D0316820
:1008E000A26821F4404111433160C00605D530684B
:1008F000E16820F48000084330600020C0B202B0FC
:10090000BDE8F08100700040400442422DE9F04112
:1009100088460446002800F08880464F4FF48050F7
:10092000395801F0070141450AD2395821F0070131
:1009300041EA08013950385800F00700404574D1A9
:10094000206810F0020F11D0410742BF796841F4CE
:10095000E0617960010742BF796841F460517960D4
:100960007968A26821F0F00111437960C00727D0AF
:100970006068012804D1396811F4003F08D154E0BF
:100980003968022802D1890102D44EE089074CD58A
:10099000796821F0030108437860FFF73DFD0646C2
:1009A00041F288357868616800F00C00B0EB810F87
:1009B00006D0FFF731FD801BA842F3D9032035E0B4
:1009C0004FF48050395801F0070141450AD9395890
:1009D00021F0070141EA08013950385800F00700BA
:1009E000404522D1206810F0040F05D07968E268F4
:1009F00021F4E06111437960000706D57868216928
:100A000020F4605040EAC100786000F031F8796865
:100A1000094AC1F30311515CC840134908600748F3
:100A20000068FFF705FE002000E00120C0B2BDE82D
:100A3000F08100BF001002408E2300087C000020DF
:100A40000948FA49094A00680968C1F30221515C62
:100A5000C8407047F748F549044A00680968C1F37F
:100A6000C221515CC8407047840000209E230008CA
:100A700010B50D4C0D48226802F00C03082B18BF6E
:100A800010BDC2F383430AA112F4803FCB5C02D1B4
:100A90000C48584310BD216809A25843C1F3404196
:100AA000515CB0FBF1F010BD0410024000127A005E
:100AB00002030405060708090A0B0C0D0E0F10109F
:100AC0000102000000093D002DE9FE430446002814
:100AD00000F05C812078D44ED44FC007B14650D08E
:100AE000386800F00C00042818D0386800F00C00BA
:100AF000082803D1386810F4803F0FD16068A0B196
:100B0000B0F5803F06D03168B0F5A02F25D141F473
:100B100080203060306840F4803024E0306810F489
:100B2000003F2ED0606860BB30E1306820F4803038
:100B30003060306820F480203060FFF76DFC05469F
:100B4000D9F800004E4610F4003F1AD0FFF764FCBD
:100B5000411B03206429F3D919E121F4803030606E
:100B6000306820F480203060FFF756FC054630687E
:100B700010F4003F05D1FFF74FFC401B6428F6D965
:100B8000E6E0207880072FD5386810F00C0F08D0E9
:100B9000386800F00C0008280BD1386810F4803F4A
:100BA00007D1306810F0020F17D02069012814D047
:100BB000ECE021699E48002900F08A800121016053
:100BC000FFF72AFC0546306810F0020F05D1FFF749
:100BD00023FC401B0228F6D9BAE03068616920F096
:100BE000F80040EAC10030602078000730D5A069E5
:100BF00080B18F480121C0F88014FFF70DFC054635
:100C0000386A10F0020F16D1FFF706FC401B0228CD
:100C1000F6D99DE086480021C0F88014FFF7FCFB60
:100C20000546386A10F0020F12D0FFF7F5FB401BA3
:100C30000228F6D98CE07F484FF4FA510068B0FBE7
:100C4000F1F0029000BF0298411E00280291F9D1F4
:100C50002078400740F18580B86910F0805F0BD1A3
:100C6000B8694FF0010840F08050B861B86900F0F1
:100C700080500190019801E04FF000086E4E484608
:100C800059F8060010F4807F14D159F8060040F49A
:100C9000807049F80600FFF7BFFB0546484659F843
:100CA000060010F4807F05D1FFF7B6FB401B6428D7
:100CB000F4D94DE0E068F0B1012805D0F9690528C4
:100CC00031D141F00400F861F86940F0010030E0F2
:100CD00000210160FFF7A0FB05464846D9F8000057
:100CE00010F0020F3FF480AFFFF796FB411B03208B
:100CF0000229F2D94BE0F86920F00100F861F869A7
:100D000020F00400F861FFF787FB054641F28836C2
:100D1000F86910F0020F1DD0FFF77EFB411B032086
:100D2000B142F5D933E021F00100F861F86920F013
:100D30000400F861FFF770FB054641F28836F86958
:100D400010F0020F06D1FFF767FB401BB042F6D947
:100D500003201CE0B8F1000F1EBFB86920F08050DE
:100D6000B861E669002E5DD0386800F00C000828F4
:100D700011D1012E0AD03868216A00F480328A42EB
:100D800004D1616A00F4701088424BD00120C0B2D7
:100D900003B0BDE8F0832649002088460866FFF7C7
:100DA0003BFB0546022E0DD146464846D9F80000C9
:100DB00010F0007F13D0FFF72FFB411B0320022907
:100DC000F3D9E4E74846D9F8000010F0007F29D0B5
:100DD000FFF722FB411B03200229F3D9D7E7206A42
:100DE000B0F5803F05D13968A26821F40031114384
:100DF00039603968626A104321F47411084338601D
:100E000001203066FFF708FB04464846D9F8000089
:100E100010F0007F06D1FFF7FFFA011B0320022923
:100E2000F3D9B4E70020B2E70010024004100240FA
:100E300000004242840000200060FEFFF8B5064634
:100E4000002015460C468DF80200ADF80000012088
:100E5000E6B1DCB169463046002200F019F808B16D
:100E6000012013E0307B002D2070F07BE070777B59
:100E70006770B67BA67008D05F4DA847E070384613
:100E8000A84760703046A847A070002001B0F0BDB0
:100E90002DE9F047064690460C460120002E4FD023
:100EA000002C4DD03068406810F0040F50D130460F
:100EB00000F010FE4FF461613C23B0FBF1F202FB45
:100EC0001101B1FBF3F36370C3EB0313A1EB8301D7
:100ED000A170E449884224D31823B0FBF1F54549B9
:100EE000B2FBF3F303EB430305FB0109A2EBC302DF
:100EF000494622703268136A526A92B242EA034249
:100F0000171A304698BF4FF0FF37531C08BF1746DB
:100F100000F031FEE0B9781C14D007EB090130462F
:100F200013E02270B8F1000F09D02078324DA847A5
:100F300020706078A8476070A078A847A070002053
:100F4000BDE8F08730464FF0FF3100F000FE10B1F1
:100F50000120BDE8F087777BB37BF07B4FF0010A7F
:100F600041F2AA524FF0640C4FF4C87ECDB30C2F5F
:100F700013D80AFA07F1114206D01E2B09D90C2FFB
:100F800009D10130012707E011F4256F07D01D2B8F
:100F900001D8013301E001370123013DE6E7022FCB
:100FA000FBD11B2B01D8013319E01D2B14D01C2BB6
:100FB00015D110F0030F0FD11FFA80F91D2302275E
:100FC000B9FBFEF101FB1E910029E6D0B9FBFCF153
:100FD00001FB1C910029E0D101230327DDE7022753
:100FE000DBE7F9B2DAB27773F073B37300F083FD25
:100FF000307397E780AEFEFF451A0008B0B504468F
:10100000E8B3607C20B900202074204600F044F84A
:1010100002206074204600F027F960BB204600F0F3
:1010200026FD40BB2168486820F007004860194849
:10103000A2681AB1436823F001034360036823F4F4
:1010400060731A4302606068421C06D101200125CA
:10105000FFF774FB80B1216801388A6822F00F0223
:1010600042EA10428A60CA6860F30F022046CA60F2
:1010700000F016FD30B101250420607400E0012568
:101080002846B0BD002540F20110E573A4F80D001C
:101090000120F2E72C6C004000680B49884218BF21
:1010A0007047E0B5FFF744FB0848016841F0006174
:1010B00001600121006800F000600190019804487F
:1010C0000160BDE883407047002800401C100240CA
:1010D0003C04424270B504460D460120002C59D014
:1010E000002D57D0217C0220012953D060740120AB
:1010F000002A2074E87817D000F00F010009AA78C0
:1011000000EB800001EB400002F00F031209697848
:1011100002EB820203EB420201F00F03090901EB2B
:10112000810103EB410101E06978AA786173E07302
:10113000A273C0B2C9B2D2B200F0DDFC2073287035
:10114000204600F0C7FC144988421FD3454EB0FB2F
:10115000F6F101FB16052046294600F00CFD28B1EA
:101160000020207404206074012013E02068016ACC
:10117000406A80B240EA0140411C07D0A84205D233
:101180008119204600F0E3FC0028E9D1002001216C
:1011900020746174C0B270BD905F0100B0B50446A8
:1011A0000120002C5BD0002959D0237C0220012B88
:1011B00055D060740120002A2074087820D000F0F7
:1011C0000F02000900EB800002EB40004FF4616267
:1011D000C0B250434A78897802F00F03120902EB3B
:1011E000820203EB4202D2B2C2EB021200EB820097
:1011F00001F00F02090901EB810102EB410108E056
:101200004FF4616250434A788978C2EB021200EBD6
:101210008200C9B245182046294600F0ACFC28B12E
:101220000020207404206074012018E020684168C8
:1012300021F005014160016A406A80B240EA014044
:10124000411C08D0A84206D206490144204600F0BD
:101250007EFC0028E4D10020012120746174C0B21A
:10126000B0BD00BF80510100B0B50446A0B12068F8
:10127000416821F008014160FFF7CEF8054620687B
:10128000406810F0080F09D1FFF7C6F8401BB0F511
:101290007A7FF4D9032002E0012000E00020C0B2F0
:1012A000B0BD0000411E0020B0EB116F1CBF01203B
:1012B0007047044AF023516003490B700721906086
:1012C0001160704710E000E023ED00E090F83C2052
:1012D000012A01D102211FE0B0B501F10805D1E9D1
:1012E00000CE3CCDC96923F47C5322F470521A43DA
:1012F0002EF4F0431A432CF4E0431A4324F4C04381
:101300001A432A4322F480421143026851640021A7
:1013100080F83C10BDE8B040C8B2704790F83C304F
:101320000222012B28D080B580F83D20012280F8D0
:101330003C2002685368D2F808C0B2F1804F23F015
:10134000700E0B6843EA0E035360BDE8804008D07E
:101350000A4B9A4205D02A4B9A4202D0084B9A4235
:1013600004D149682CF080031943916000220121C7
:1013700080F83C2080F83D10D0B270470004004057
:101380000008004010B5044630B394F83D0028B979
:10139000002084F83C00204600F020F80220211DA7
:1013A00084F83D00206800F02DFC012084F8460000
:1013B00084F83E0084F83F0084F8400084F841003F
:1013C00084F8420084F8430084F8440084F845001F
:1013D00084F83D00002010BD012010BD00680849C0
:1013E000884218BF704781B00648016841F4006127
:1013F0000160006800F400600090009801B0704740
:10140000002C01401810024010B590F83C20044612
:101410000220012A25D084F83D0001204FF6777282
:1014200084F83C00206884465CF8083F23EA020206
:10143000CCF800200B682BB1102B03D0202B18BF49
:10144000302B10D1DCF8000020F07700184340F07A
:101450000700CCF800000020012184F83C0084F84B
:101460003D10C0B210BD402B1AD0502B26D0602B9F
:1014700032D0B3F5005F3DD0702BECD1D1E9010241
:10148000C968104340EA0120DCF8001021F47F41D4
:101490000843CCF80000DCF8000040F07700D8E703
:1014A0004B68CA68194600F0CFFCD4F800C05CF85D
:1014B000080F20F0770040F04700CAE74B68CA6881
:1014C000194600F0C1FCD4F800C05CF8080F20F009
:1014D000770040F05700BCE74B68CA68194600F037
:1014E000C4FCD4F800C05CF8080F20F0770040F08E
:1014F0006700AEE7D1E90102C968104340EA012064
:10150000DCF8001021F47F410843CCF80000DCF83F
:10151000000040F480409CE710B5044690F83C0081
:10152000012801D102201CE0012084F83C004FEA90
:10153000B200032812D8DFE800F002060A0E206885
:1015400000F08CFB0AE0206800F0B4FB06E02068A5
:1015500000F0E0FB02E0206800F00CFC002084F8C2
:101560003C00C0B210BD10B5044630B394F83D0045
:1015700028B9002084F83C00204600F020F8022022
:10158000211D84F83D00206800F03CFB012084F818
:10159000460084F83E0084F83F0084F8400084F858
:1015A000410084F8420084F8430084F8440084F841
:1015B000450084F83D00002010BD012010BD70479B
:1015C000B0B590F83C2004460220012A1AD084F8D5
:1015D0003D000125204684F83C5000F0F1FB002836
:1015E0004FF0010009D12068C16821F04001C160BD
:1015F000C16821F48041C1600020002184F83C10C2
:1016000084F83D50C0B2B0BD704770477CB50168EA
:1016100006460A680846CB6850F8144F12F00F0FC0
:1016200058D003F4907504F0010425435CD0D10731
:101630001FBF13F48071316C41F001013164510717
:1016400004D51CB1316C41F002013164910704D51D
:101650001CB1316C41F004013164110707D503F06E
:10166000200121431EBF316C41F008013164316C0F
:10167000002900F0D28003EA0201890604D5304631
:1016800000F020FC306814300068316C00F040003D
:1016900001F00801084300F0AC80304600F0FCFB8C
:1016A0003068416911F0400F00F09E80416921F0DF
:1016B00040014161B06B002800F096805C494163B5
:1016C000FEF776FD002800F0A880B06B416BBDE806
:1016D0007C40084703EA020010F0200F06D0304695
:1016E000BDE87C4000F0EEBB03EA0200326BC306AB
:1016F0002DD5012A2BD1002001900868019048685F
:1017000001900198486910F0400F30D1F08DB28DF2
:10171000F38D002B00F08180101A02047DD0CA687E
:1017200022F49072CA604A6922F001024A612022C2
:1017300086F83E2000223263CA6822F01002CA6096
:1017400081B2304602B0BDE87040FFF75DBF0206CF
:101750003AD4400661D5C86820F04000C860202017
:1017600086F83D003046BDE87C4000F066B9B06BBD
:10177000026853689CB2002C4FD0B28D94424CD278
:10178000F3858369202B17D0CA6822F48072CA605F
:101790004A6922F001024A614A6922F040024A6124
:1017A000202286F83E2000223263CA6822F010020E
:1017B000CA60FEF7DDFCB28DF08D101A81B23046A2
:1017C000BDE87C40FFF720BF96F83D00212824D1DA
:1017D000B068B0F5805F01D1306980B1306A421CD9
:1017E00032620078486011E03046BDE87C40FFF787
:1017F0000CBF3046FFF709FF002030647CBD306A23
:1018000030F8022B6FF35F224A603062F08C4FF6A3
:10181000FF7201381042F08400D07CBDC86820F00F
:101820008000C860C86840F04000C8607CBD00BF50
:101830008D1E000810B5044640B394F83D0028B949
:10184000002084F83C00204600F022F8242084F890
:101850003D002068C16821F40051C160204600F0BD
:101860008DFB2068016921F490410161416921F0FB
:101870002A014161C16841F40051C160002020216A
:10188000206484F83D1084F83E1010BD012010BD86
:1018900070B586B000261E4CCDE90466CDE902661F
:1018A000006804F5405188422FD11A4802AD016802
:1018B00041F480410160016801F480410191019986
:1018C000016841F0040101602946006800F004004D
:1018D00001900198022003904FF4007002900320C1
:1018E00005902046FEF7C2FC4FF48060039629461F
:1018F000029020460496FEF7B9FC25200021002224
:10190000FEF7E4FE2520FEF7D3FE06B070BD00BF53
:10191000000801401810024010B590F83E30202B0E
:1019200006D1012429B122B190F83C30012B02D11B
:101930000224E0B210BD00240123046380F83C308F
:1019400000F05EFBF5E7000010B50C4CA0784D28C8
:1019500001D0422804D10020E08000F0F9FCA078FA
:1019600040F00800582801D100F0E4FC0448A11C14
:1019700001221430BDE81040FFF7CEBF0000002068
:10198000900000202DE9F047044690F83D0099466C
:1019900016460D46202806D101202DB126B194F817
:1019A0003C00012803D10220C0B2BDE8F0874FF00F
:1019B000000A0120C4F840A084F83C00212084F8EB
:1019C0003D00FEF729FDA684E6848046A068B0F5B8
:1019D000805F06D127690026002F0CBF2E462F46B8
:1019E00001E02F46002684F83CA015E02046802127
:1019F00042464B4600F01DFBC0B91FB117F8011B52
:101A0000206805E036F8021B206800276FF35F218D
:101A10004160E08C0138E084E08C0028E6D120466B
:101A2000402142464B4600F004FB08B10320BBE7CF
:101A3000202084F83D000020B6E77047FEE7FEE76F
:101A400070477047C143CAB2F62A4FF00A0298BFE6
:101A50006FF0090101440A31C9B2B1FBF2F101EBA7
:101A60008102A0EB420040EA0110C0B27047B0B55D
:101A70000446FEF7D1FC05462068416811F0200FAE
:101A800007D1FEF7C9FC401BB0F57A7FF4D90320DB
:101A900004E0416841F0100141600020C0B2B0BDD7
:101AA000B0B504460068416821F010014160FEF7BE
:101AB000B3FC05462068406810F0200F07D1FEF700
:101AC000ABFC401BB0F57A7FF4D9032000E0002086
:101AD000C0B2B0BD02689169D2F81CC0936983EAB4
:101AE000010000041CBFD2F81CC019461FFA8CF07C
:101AF00040EA01407047172300EB020C092202293B
:101B000001FB03F3B3FBF2F2624402F2D47207D892
:101B100000F2CF706421B0FBF1F1C1EB900109E05C
:101B200000F5FA6064216FF00103B0FBF1F103EB03
:101B30009003591A4FF4C873B0FBF3F0084407211F
:101B40001044B0FBF1F1C1EBC101401A7047B0B5D0
:101B50000D460446FFF78BFF08B10120B0BD206899
:101B6000290C0162A9B241622046FFF799FF0028C3
:101B700018BF0120B0BDB0B50D460446FFF777FF92
:101B800008B10120B0BD2068290C8161A9B2C161F2
:101B90002046FFF785FF002818BF0120B0BD704721
:101BA000FEF72CBD70B594B0002409200125022653
:101BB0000F94CDE90D44CDE903440A904FF48030F1
:101BC000CDE90B040E951095CDE911604FF4E010AE
:101BD00013900AA8FEF778FF0F200221CDE9050631
:101BE0004FF480600794CDE9080405A8FEF78EFE47
:101BF0004FF400700195029001A8FEF709FE14B0A1
:101C000070BD7047B0B503686C4DB0F1804F07D020
:101C1000104CA04204D0A84202D00F4CA04207D1E1
:101C20004C6823F45C73CA6824F440742343134360
:101C30004A6923F08003A84242EA030202608A68EC
:101C4000C2620A68826204BF096929630121416195
:101C5000B0BD00BF000400400008004070B5026A3B
:101C600022F001020262026AD0F804E0D0F818C043
:101C70008C680B6822F0020222432CF0730444EAC1
:101C8000030C4E4B98420CD1CE68D1E905452EF499
:101C9000407322F00C02234343EA050E26F00403AE
:101CA0001A43C0F804E0C0F818C0496841630262F2
:101CB00070BD00BF70B5026A22F010020262026AB3
:101CC000D0F804E0D0F818C08C680B6822F020022D
:101CD00042EA04122CF4E64444EA032C374B9842BF
:101CE0000FD1CE68D1E905452EF4406322F0C00241
:101CF00043EA840343EA850E6FF04F0303EA0613B9
:101D00001A43C0F804E0C0F818C049688163026251
:101D100070BD00BF70B5026A22F480720262026A6E
:101D2000D0F804E0D0F81CC08C680B6822F4007274
:101D300042EA04222CF0730444EA030C1F4B98423D
:101D40000FD1CE68D1E905452EF4405322F440620C
:101D500043EA041340F2FF4443EA051E3302A3435F
:101D60001A43C0F804E0C0F81CC04968C1630262AD
:101D700070BD00BFB0B5026A22F480520262026AEE
:101D8000D0F804E0C5698B680C6822F4005242EA7E
:101D9000033C0A4B25F4E64242EA0422984204D16D
:101DA0004B692EF4804545EA831EC0F804E0C26109
:101DB00049680164C0F820C0B0BD00BF002C0140DC
:101DC00080B50068826822F0770ED1E900C222F067
:101DD000070343EA0E0343EA0C0383606FF0030337
:101DE00003EB3213032B2DD8DFE803F002151B2180
:101DF000BCF1050F04BF012080BD026A036A23F015
:101E0000010303628369096923F0F00343EA0111C6
:101E10008161026216E08B680A69194600F014F8C5
:101E200010E08B680A69194600F01FF80AE0D1E952
:101E3000022309691A4342EA0121826822F47F429F
:101E400011438160002080BDD0F820C0036A23F0D8
:101E500001030362836923F0F00343EA0212826103
:101E60002CF00A02114301627047036A23F0100349
:101E70000362836923F4704343EA0232036A826196
:101E800023F0A00242EA011101627047406A00217A
:101E9000C185C184FFF7B9BB0168CA6822F490729A
:101EA000CA604A6922F001024A61026B012A02BF3C
:101EB000CA6822F01002CA60202180F83E1000217A
:101EC0000163704790F83E10222918BF704783685D
:101ED000B3F5805F05D10169B1B100F128010A684D
:101EE0000BE00146002B51F8282F01D1036923B1E3
:101EF00003685B6803F07F0301E003685B681370AD
:101F00000A6801320A6007E00168826A49686FF373
:101F10005F2122F8021B8262C18D4FF6FF720139E8
:101F20001142C18500D070470168CA6822F02002C2
:101F3000CA60CA6822F48072CA604A6922F001024B
:101F40004A61202280F83E20026B012A18BFFFF769
:101F5000FBBC00220263CB6823F01003CB600B684C
:101F600013F0100F07D081B000920A680092496800
:101F70000091009901B0818DFFF746BB10B5044672
:101F800000680169E26821F44051114341F20C629A
:101F90000161D4F808C0D4E904E3C16891434EEA72
:101FA0000C021A431143C1604169A26921F44071D6
:101FB000114341611149884202D0FEF741FD01E021
:101FC000FEF748FD19214843D4E900126FF063047D
:101FD0009200B0FBF2F06422B0FBF2F303FB0400CA
:101FE000322404EB0010B0FBF2F000F0F00200F03D
:101FF0000F0002EB03121043886010BD003801404F
:102000000023C285036482858162222180F83C30EE
:1020100080F83E100068C16841F48071C160416978
:1020200041F001014161C16841F02001C16000201F
:1020300070472DE9F0411D4690460F4604465E1C50
:10204000206801683940B9421BD0002EF8D035B164
:10205000FEF7E2F9A0EB0800A842F1D92068C168B8
:1020600021F4D071C160416921F00101416120205A
:10207000002184F83D0084F83C1084F83E000320E1
:1020800000E00020C0B2BDE8F08100000148FFF789
:10209000BDBA00BFA4000020FEE7000010B5074C49
:1020A00000F00F03044AB0F1FF3F2344C8BF831878
:1020B0000801187010BD00BF00E400E014ED00E05E
:1020C00010B5AA4C082100222046FEF79FF92046B1
:1020D00020210122BDE81040FEF798B92DE9F04318
:1020E0009BB0FEF793FAFFF75DFD8A480022282592
:1020F0000027016841F010010160016801F0100142
:1021000001910199016841F020010160016801F02D
:10211000200101910199016841F004010160016809
:1021200001F0040101910199016841F00801016089
:102130002821006800F0080001900198764800F519
:10214000604481462046FEF761F9012001A9CDE9EE
:1021500001500220CDE903002046FEF787F86F4CBE
:102160004FF0FF304FF48071C4E900902046A16029
:10217000FEF744FF41F60F6009A90022ADF82400E4
:1021800020468DF82670FFF709F8654801A900225E
:1021900001902046FEF79EFF09AD1C211A97CDE95C
:1021A00018771697CDE914772846FDF7C2FF0DF191
:1021B00004081C214046FDF7BCFF5A4E09F5823049
:1021C0004FF6FF71C6E900073046C6E90271C6E95D
:1021D0000477B761FFF7D6F84FF4805017A917902E
:1021E0003046FFF711F93046FFF7BDF9102012977E
:1021F00012A913903046FFF7E3F910A93046CDE954
:102200001077FFF78BF828461C21FDF792FF304628
:1022100029460022FFF780F940461421FDF789FF87
:102220004FF400500897414606903046FFF74EF8AD
:1022300009F5883025460C2145F8140F4FF4165047
:10224000C5E901072846C5E90377C5E90517EF6128
:10225000FFF7F0FA3448354A09F5305140234FF47E
:102260008046076280E8860000F10C01C8C1C0E921
:102270000677FEF7D5F800F05DF82820FDF7E6FFB9
:102280002B4E28460122B11CFFF746FBFF2540F2EA
:10229000B63706F10A0120460022FEF7F9FD06F1E5
:1022A000100120460022FEF7C9FD86F842500722A1
:1022B00064237089B087307BF17C86F83E0086F815
:1022C0003F1006F13C01B6F81100A6F8400004F1F9
:1022D0001400FFF757FB6420FDF7B8FFF0880130CA
:1022E00081B2F080B1F5E17F02D100F023F8F088EF
:1022F00081B2B1F5E67F02D1FFF7E2FEF08880B24D
:10230000B0F57A7F04D0B0F56B7FC2D100F012F83F
:10231000F780BEE71810024000280040900000201F
:1023200000041E17F000002040010020A0860100DC
:102330000000002010B50D4C082100222046FEF7B9
:1023400065F8204620210022BDE81040FEF75EB867
:1023500010B5064C082101222046FEF757F820460A
:1023600020210022BDE81040FEF750B800080140CF
:1023700002E008C8121F08C1002AFAD1704770474E
:10238000002001E001C1121F002AFBD170470000AC
:102390000000000000000102030406070809000015
:1023A0000000010203040000D02300080000002008
:1023B00090000000702300086024000890000020B6
:1023C0000805000080230008000000000000000055
:1023D000EC0000000000B603000000000000000058
:1023E00000000000000000000000000000000000ED
:1023F00000000000000000000000000000000000DD
:1024000000000000000000000000000000000000CC
:1024100000000000000000000000000000000000BC
:1024200000000000000000000000000000000000AC
:10243000000000000000000000000000000000009C
:10244000000000000000000001000000100000007B
:10245000000000000024F400000000000000000064
:04000005080000ED02
:00000001FF
